{
	"Purgatory_flattened.sol": {
		"Purgatory": {
			"abi": [
				{
					"inputs": [],
					"stateMutability": "nonpayable",
					"type": "constructor"
				},
				{
					"inputs": [
						{
							"internalType": "address",
							"name": "spender",
							"type": "address"
						},
						{
							"internalType": "uint256",
							"name": "allowance",
							"type": "uint256"
						},
						{
							"internalType": "uint256",
							"name": "needed",
							"type": "uint256"
						}
					],
					"name": "ERC20InsufficientAllowance",
					"type": "error"
				},
				{
					"inputs": [
						{
							"internalType": "address",
							"name": "sender",
							"type": "address"
						},
						{
							"internalType": "uint256",
							"name": "balance",
							"type": "uint256"
						},
						{
							"internalType": "uint256",
							"name": "needed",
							"type": "uint256"
						}
					],
					"name": "ERC20InsufficientBalance",
					"type": "error"
				},
				{
					"inputs": [
						{
							"internalType": "address",
							"name": "approver",
							"type": "address"
						}
					],
					"name": "ERC20InvalidApprover",
					"type": "error"
				},
				{
					"inputs": [
						{
							"internalType": "address",
							"name": "receiver",
							"type": "address"
						}
					],
					"name": "ERC20InvalidReceiver",
					"type": "error"
				},
				{
					"inputs": [
						{
							"internalType": "address",
							"name": "sender",
							"type": "address"
						}
					],
					"name": "ERC20InvalidSender",
					"type": "error"
				},
				{
					"inputs": [
						{
							"internalType": "address",
							"name": "spender",
							"type": "address"
						}
					],
					"name": "ERC20InvalidSpender",
					"type": "error"
				},
				{
					"inputs": [
						{
							"internalType": "address",
							"name": "owner",
							"type": "address"
						}
					],
					"name": "OwnableInvalidOwner",
					"type": "error"
				},
				{
					"inputs": [
						{
							"internalType": "address",
							"name": "account",
							"type": "address"
						}
					],
					"name": "OwnableUnauthorizedAccount",
					"type": "error"
				},
				{
					"anonymous": false,
					"inputs": [
						{
							"indexed": true,
							"internalType": "address",
							"name": "owner",
							"type": "address"
						},
						{
							"indexed": true,
							"internalType": "address",
							"name": "spender",
							"type": "address"
						},
						{
							"indexed": false,
							"internalType": "uint256",
							"name": "value",
							"type": "uint256"
						}
					],
					"name": "Approval",
					"type": "event"
				},
				{
					"anonymous": false,
					"inputs": [
						{
							"indexed": true,
							"internalType": "address",
							"name": "previousOwner",
							"type": "address"
						},
						{
							"indexed": true,
							"internalType": "address",
							"name": "newOwner",
							"type": "address"
						}
					],
					"name": "OwnershipTransferred",
					"type": "event"
				},
				{
					"anonymous": false,
					"inputs": [
						{
							"indexed": true,
							"internalType": "address",
							"name": "from",
							"type": "address"
						},
						{
							"indexed": true,
							"internalType": "address",
							"name": "to",
							"type": "address"
						},
						{
							"indexed": false,
							"internalType": "uint256",
							"name": "value",
							"type": "uint256"
						}
					],
					"name": "Transfer",
					"type": "event"
				},
				{
					"inputs": [],
					"name": "MAX_SUPPLY",
					"outputs": [
						{
							"internalType": "uint256",
							"name": "",
							"type": "uint256"
						}
					],
					"stateMutability": "view",
					"type": "function"
				},
				{
					"inputs": [
						{
							"internalType": "address",
							"name": "owner",
							"type": "address"
						},
						{
							"internalType": "address",
							"name": "spender",
							"type": "address"
						}
					],
					"name": "allowance",
					"outputs": [
						{
							"internalType": "uint256",
							"name": "",
							"type": "uint256"
						}
					],
					"stateMutability": "view",
					"type": "function"
				},
				{
					"inputs": [
						{
							"internalType": "address",
							"name": "spender",
							"type": "address"
						},
						{
							"internalType": "uint256",
							"name": "value",
							"type": "uint256"
						}
					],
					"name": "approve",
					"outputs": [
						{
							"internalType": "bool",
							"name": "",
							"type": "bool"
						}
					],
					"stateMutability": "nonpayable",
					"type": "function"
				},
				{
					"inputs": [
						{
							"internalType": "address",
							"name": "account",
							"type": "address"
						}
					],
					"name": "balanceOf",
					"outputs": [
						{
							"internalType": "uint256",
							"name": "",
							"type": "uint256"
						}
					],
					"stateMutability": "view",
					"type": "function"
				},
				{
					"inputs": [
						{
							"internalType": "uint256",
							"name": "amount",
							"type": "uint256"
						}
					],
					"name": "burn",
					"outputs": [],
					"stateMutability": "nonpayable",
					"type": "function"
				},
				{
					"inputs": [],
					"name": "decimals",
					"outputs": [
						{
							"internalType": "uint8",
							"name": "",
							"type": "uint8"
						}
					],
					"stateMutability": "view",
					"type": "function"
				},
				{
					"inputs": [
						{
							"internalType": "address",
							"name": "to",
							"type": "address"
						},
						{
							"internalType": "uint256",
							"name": "amount",
							"type": "uint256"
						}
					],
					"name": "mint",
					"outputs": [],
					"stateMutability": "nonpayable",
					"type": "function"
				},
				{
					"inputs": [],
					"name": "name",
					"outputs": [
						{
							"internalType": "string",
							"name": "",
							"type": "string"
						}
					],
					"stateMutability": "view",
					"type": "function"
				},
				{
					"inputs": [],
					"name": "owner",
					"outputs": [
						{
							"internalType": "address",
							"name": "",
							"type": "address"
						}
					],
					"stateMutability": "view",
					"type": "function"
				},
				{
					"inputs": [],
					"name": "renounceOwnership",
					"outputs": [],
					"stateMutability": "nonpayable",
					"type": "function"
				},
				{
					"inputs": [],
					"name": "symbol",
					"outputs": [
						{
							"internalType": "string",
							"name": "",
							"type": "string"
						}
					],
					"stateMutability": "view",
					"type": "function"
				},
				{
					"inputs": [],
					"name": "totalSupply",
					"outputs": [
						{
							"internalType": "uint256",
							"name": "",
							"type": "uint256"
						}
					],
					"stateMutability": "view",
					"type": "function"
				},
				{
					"inputs": [
						{
							"internalType": "address",
							"name": "to",
							"type": "address"
						},
						{
							"internalType": "uint256",
							"name": "value",
							"type": "uint256"
						}
					],
					"name": "transfer",
					"outputs": [
						{
							"internalType": "bool",
							"name": "",
							"type": "bool"
						}
					],
					"stateMutability": "nonpayable",
					"type": "function"
				},
				{
					"inputs": [
						{
							"internalType": "address",
							"name": "from",
							"type": "address"
						},
						{
							"internalType": "address",
							"name": "to",
							"type": "address"
						},
						{
							"internalType": "uint256",
							"name": "value",
							"type": "uint256"
						}
					],
					"name": "transferFrom",
					"outputs": [
						{
							"internalType": "bool",
							"name": "",
							"type": "bool"
						}
					],
					"stateMutability": "nonpayable",
					"type": "function"
				},
				{
					"inputs": [
						{
							"internalType": "address",
							"name": "newOwner",
							"type": "address"
						}
					],
					"name": "transferOwnership",
					"outputs": [],
					"stateMutability": "nonpayable",
					"type": "function"
				}
			],
			"devdoc": {
				"errors": {
					"ERC20InsufficientAllowance(address,uint256,uint256)": [
						{
							"details": "Indicates a failure with the `spender`’s `allowance`. Used in transfers.",
							"params": {
								"allowance": "Amount of tokens a `spender` is allowed to operate with.",
								"needed": "Minimum amount required to perform a transfer.",
								"spender": "Address that may be allowed to operate on tokens without being their owner."
							}
						}
					],
					"ERC20InsufficientBalance(address,uint256,uint256)": [
						{
							"details": "Indicates an error related to the current `balance` of a `sender`. Used in transfers.",
							"params": {
								"balance": "Current balance for the interacting account.",
								"needed": "Minimum amount required to perform a transfer.",
								"sender": "Address whose tokens are being transferred."
							}
						}
					],
					"ERC20InvalidApprover(address)": [
						{
							"details": "Indicates a failure with the `approver` of a token to be approved. Used in approvals.",
							"params": {
								"approver": "Address initiating an approval operation."
							}
						}
					],
					"ERC20InvalidReceiver(address)": [
						{
							"details": "Indicates a failure with the token `receiver`. Used in transfers.",
							"params": {
								"receiver": "Address to which tokens are being transferred."
							}
						}
					],
					"ERC20InvalidSender(address)": [
						{
							"details": "Indicates a failure with the token `sender`. Used in transfers.",
							"params": {
								"sender": "Address whose tokens are being transferred."
							}
						}
					],
					"ERC20InvalidSpender(address)": [
						{
							"details": "Indicates a failure with the `spender` to be approved. Used in approvals.",
							"params": {
								"spender": "Address that may be allowed to operate on tokens without being their owner."
							}
						}
					],
					"OwnableInvalidOwner(address)": [
						{
							"details": "The owner is not a valid owner account. (eg. `address(0)`)"
						}
					],
					"OwnableUnauthorizedAccount(address)": [
						{
							"details": "The caller account is not authorized to perform an operation."
						}
					]
				},
				"events": {
					"Approval(address,address,uint256)": {
						"details": "Emitted when the allowance of a `spender` for an `owner` is set by a call to {approve}. `value` is the new allowance."
					},
					"Transfer(address,address,uint256)": {
						"details": "Emitted when `value` tokens are moved from one account (`from`) to another (`to`). Note that `value` may be zero."
					}
				},
				"kind": "dev",
				"methods": {
					"allowance(address,address)": {
						"details": "See {IERC20-allowance}."
					},
					"approve(address,uint256)": {
						"details": "See {IERC20-approve}. NOTE: If `value` is the maximum `uint256`, the allowance is not updated on `transferFrom`. This is semantically equivalent to an infinite approval. Requirements: - `spender` cannot be the zero address."
					},
					"balanceOf(address)": {
						"details": "See {IERC20-balanceOf}."
					},
					"burn(uint256)": {
						"params": {
							"amount": "Yakılacak miktar"
						}
					},
					"decimals()": {
						"details": "Returns the number of decimals used to get its user representation. For example, if `decimals` equals `2`, a balance of `505` tokens should be displayed to a user as `5.05` (`505 / 10 ** 2`). Tokens usually opt for a value of 18, imitating the relationship between Ether and Wei. This is the default value returned by this function, unless it's overridden. NOTE: This information is only used for _display_ purposes: it in no way affects any of the arithmetic of the contract, including {IERC20-balanceOf} and {IERC20-transfer}."
					},
					"mint(address,uint256)": {
						"params": {
							"amount": "Mintlenecek token miktarı",
							"to": "Tokenların gönderileceği adres"
						}
					},
					"name()": {
						"details": "Returns the name of the token."
					},
					"owner()": {
						"details": "Returns the address of the current owner."
					},
					"renounceOwnership()": {
						"details": "Leaves the contract without owner. It will not be possible to call `onlyOwner` functions. Can only be called by the current owner. NOTE: Renouncing ownership will leave the contract without an owner, thereby disabling any functionality that is only available to the owner."
					},
					"symbol()": {
						"details": "Returns the symbol of the token, usually a shorter version of the name."
					},
					"totalSupply()": {
						"details": "See {IERC20-totalSupply}."
					},
					"transfer(address,uint256)": {
						"details": "See {IERC20-transfer}. Requirements: - `to` cannot be the zero address. - the caller must have a balance of at least `value`."
					},
					"transferFrom(address,address,uint256)": {
						"details": "See {IERC20-transferFrom}. Emits an {Approval} event indicating the updated allowance. This is not required by the EIP. See the note at the beginning of {ERC20}. NOTE: Does not update the allowance if the current allowance is the maximum `uint256`. Requirements: - `from` and `to` cannot be the zero address. - `from` must have a balance of at least `value`. - the caller must have allowance for ``from``'s tokens of at least `value`."
					},
					"transferOwnership(address)": {
						"details": "Transfers ownership of the contract to a new account (`newOwner`). Can only be called by the current owner."
					}
				},
				"title": "Purgatory Token (PURG) - BEP20 / ERC20",
				"version": 1
			},
			"evm": {
				"assembly": "    /* \"Purgatory_flattened.sol\":25675:26539  contract Purgatory is ERC20, Ownable {... */\n  mstore(0x40, 0x80)\n    /* \"Purgatory_flattened.sol\":25830:26004  constructor() ERC20(\"Purgatory\", \"PURG\") Ownable(msg.sender) {... */\n  callvalue\n  dup1\n  iszero\n  tag_1\n  jumpi\n  0x00\n  dup1\n  revert\ntag_1:\n  pop\n    /* \"Purgatory_flattened.sol\":25879:25889  msg.sender */\n  caller\n    /* \"Purgatory_flattened.sol\":13052:13165  constructor(string memory name_, string memory symbol_) {... */\n  mload(0x40)\n  dup1\n  0x40\n  add\n  0x40\n  mstore\n  dup1\n  0x09\n  dup2\n  mstore\n  0x20\n  add\n  shl(0xb8, 0x5075726761746f7279)\n  dup2\n  mstore\n  pop\n  mload(0x40)\n  dup1\n  0x40\n  add\n  0x40\n  mstore\n  dup1\n  0x04\n  dup2\n  mstore\n  0x20\n  add\n  shl(0xe0, 0x50555247)\n  dup2\n  mstore\n  pop\n    /* \"Purgatory_flattened.sol\":13126:13131  name_ */\n  dup2\n    /* \"Purgatory_flattened.sol\":13118:13123  _name */\n  0x03\n    /* \"Purgatory_flattened.sol\":13118:13131  _name = name_ */\n  swap1\n  dup2\n  tag_6\n  swap2\n  swap1\n  tag_7\n  jump\t// in\ntag_6:\n  pop\n    /* \"Purgatory_flattened.sol\":13141:13148  _symbol */\n  0x04\n    /* \"Purgatory_flattened.sol\":13141:13158  _symbol = symbol_ */\n  tag_8\n    /* \"Purgatory_flattened.sol\":13151:13158  symbol_ */\n  dup3\n    /* \"Purgatory_flattened.sol\":13141:13148  _symbol */\n  dup3\n    /* \"Purgatory_flattened.sol\":13141:13158  _symbol = symbol_ */\n  tag_7\n  jump\t// in\ntag_8:\n  pop\n  pop\n  pop\n  sub(shl(0xa0, 0x01), 0x01)\n    /* \"Purgatory_flattened.sol\":23608:23634  initialOwner == address(0) */\n  dup2\n  and\n    /* \"Purgatory_flattened.sol\":23604:23699  if (initialOwner == address(0)) {... */\n  tag_10\n  jumpi\n    /* \"Purgatory_flattened.sol\":23657:23688  OwnableInvalidOwner(address(0)) */\n  mload(0x40)\n  shl(0xe0, 0x1e4fbdf7)\n  dup2\n  mstore\n    /* \"Purgatory_flattened.sol\":23685:23686  0 */\n  0x00\n    /* \"Purgatory_flattened.sol\":23657:23688  OwnableInvalidOwner(address(0)) */\n  0x04\n  dup3\n  add\n    /* \"#utility.yul\":2847:2898   */\n  mstore\n    /* \"#utility.yul\":2820:2838   */\n  0x24\n  add\n    /* \"Purgatory_flattened.sol\":23657:23688  OwnableInvalidOwner(address(0)) */\ntag_11:\n  mload(0x40)\n  dup1\n  swap2\n  sub\n  swap1\n  revert\n    /* \"Purgatory_flattened.sol\":23604:23699  if (initialOwner == address(0)) {... */\ntag_10:\n    /* \"Purgatory_flattened.sol\":23708:23740  _transferOwnership(initialOwner) */\n  tag_13\n    /* \"Purgatory_flattened.sol\":23727:23739  initialOwner */\n  dup2\n    /* \"Purgatory_flattened.sol\":23708:23726  _transferOwnership */\n  tag_14\n    /* \"Purgatory_flattened.sol\":23708:23740  _transferOwnership(initialOwner) */\n  jump\t// in\ntag_13:\n  pop\n    /* \"Purgatory_flattened.sol\":25968:25997  _mint(msg.sender, MAX_SUPPLY) */\n  tag_16\n    /* \"Purgatory_flattened.sol\":25974:25984  msg.sender */\n  caller\n    /* \"Purgatory_flattened.sol\":25756:25777  10_000_000 * 10 ** 18 */\n  0x084595161401484a000000\n    /* \"Purgatory_flattened.sol\":25968:25973  _mint */\n  tag_17\n    /* \"Purgatory_flattened.sol\":25968:25997  _mint(msg.sender, MAX_SUPPLY) */\n  jump\t// in\ntag_16:\n    /* \"Purgatory_flattened.sol\":25675:26539  contract Purgatory is ERC20, Ownable {... */\n  jump(tag_42)\n    /* \"Purgatory_flattened.sol\":25247:25434  function _transferOwnership(address newOwner) internal virtual {... */\ntag_14:\n    /* \"Purgatory_flattened.sol\":25339:25345  _owner */\n  0x05\n  dup1\n  sload\n  sub(shl(0xa0, 0x01), 0x01)\n    /* \"Purgatory_flattened.sol\":25355:25372  _owner = newOwner */\n  dup4\n  dup2\n  and\n  not(sub(shl(0xa0, 0x01), 0x01))\n  dup4\n  and\n  dup2\n  or\n  swap1\n  swap4\n  sstore\n    /* \"Purgatory_flattened.sol\":25387:25427  OwnershipTransferred(oldOwner, newOwner) */\n  mload(0x40)\n    /* \"Purgatory_flattened.sol\":25339:25345  _owner */\n  swap2\n  and\n  swap2\n    /* \"Purgatory_flattened.sol\":25355:25372  _owner = newOwner */\n  swap1\n    /* \"Purgatory_flattened.sol\":25339:25345  _owner */\n  dup3\n  swap1\n    /* \"Purgatory_flattened.sol\":25387:25427  OwnershipTransferred(oldOwner, newOwner) */\n  0x8be0079c531659141344cd1fd0a4f28419497f9722a3daafe3b4186f6b6457e0\n  swap1\n    /* \"Purgatory_flattened.sol\":25320:25336  address oldOwner */\n  0x00\n  swap1\n    /* \"Purgatory_flattened.sol\":25387:25427  OwnershipTransferred(oldOwner, newOwner) */\n  log3\n    /* \"Purgatory_flattened.sol\":25310:25434  {... */\n  pop\n    /* \"Purgatory_flattened.sol\":25247:25434  function _transferOwnership(address newOwner) internal virtual {... */\n  pop\n  jump\t// out\n    /* \"Purgatory_flattened.sol\":18877:19085  function _mint(address account, uint256 value) internal {... */\ntag_17:\n  sub(shl(0xa0, 0x01), 0x01)\n    /* \"Purgatory_flattened.sol\":18947:18968  account == address(0) */\n  dup3\n  and\n    /* \"Purgatory_flattened.sol\":18943:19034  if (account == address(0)) {... */\n  tag_21\n  jumpi\n    /* \"Purgatory_flattened.sol\":18991:19023  ERC20InvalidReceiver(address(0)) */\n  mload(0x40)\n  shl(0xe0, 0xec442f05)\n  dup2\n  mstore\n    /* \"Purgatory_flattened.sol\":19020:19021  0 */\n  0x00\n    /* \"Purgatory_flattened.sol\":18991:19023  ERC20InvalidReceiver(address(0)) */\n  0x04\n  dup3\n  add\n    /* \"#utility.yul\":2847:2898   */\n  mstore\n    /* \"#utility.yul\":2820:2838   */\n  0x24\n  add\n    /* \"Purgatory_flattened.sol\":18991:19023  ERC20InvalidReceiver(address(0)) */\n  tag_11\n    /* \"#utility.yul\":2701:2904   */\n  jump\n    /* \"Purgatory_flattened.sol\":18943:19034  if (account == address(0)) {... */\ntag_21:\n    /* \"Purgatory_flattened.sol\":19043:19078  _update(address(0), account, value) */\n  tag_23\n    /* \"Purgatory_flattened.sol\":19059:19060  0 */\n  0x00\n    /* \"Purgatory_flattened.sol\":19063:19070  account */\n  dup4\n    /* \"Purgatory_flattened.sol\":19072:19077  value */\n  dup4\n    /* \"Purgatory_flattened.sol\":19043:19050  _update */\n  tag_24\n    /* \"Purgatory_flattened.sol\":19043:19078  _update(address(0), account, value) */\n  jump\t// in\ntag_23:\n    /* \"Purgatory_flattened.sol\":18877:19085  function _mint(address account, uint256 value) internal {... */\n  pop\n  pop\n  jump\t// out\n    /* \"Purgatory_flattened.sol\":17427:18534  function _update(address from, address to, uint256 value) internal virtual {... */\ntag_24:\n  sub(shl(0xa0, 0x01), 0x01)\n    /* \"Purgatory_flattened.sol\":17516:17534  from == address(0) */\n  dup4\n  and\n    /* \"Purgatory_flattened.sol\":17512:18052  if (from == address(0)) {... */\n  tag_26\n  jumpi\n    /* \"Purgatory_flattened.sol\":17668:17673  value */\n  dup1\n    /* \"Purgatory_flattened.sol\":17652:17664  _totalSupply */\n  0x02\n  0x00\n    /* \"Purgatory_flattened.sol\":17652:17673  _totalSupply += value */\n  dup3\n  dup3\n  sload\n  tag_27\n  swap2\n  swap1\n  tag_28\n  jump\t// in\ntag_27:\n  swap1\n  swap2\n  sstore\n  pop\n    /* \"Purgatory_flattened.sol\":17512:18052  if (from == address(0)) {... */\n  tag_29\n  swap1\n  pop\n  jump\ntag_26:\n  sub(shl(0xa0, 0x01), 0x01)\n    /* \"Purgatory_flattened.sol\":17726:17741  _balances[from] */\n  dup4\n  and\n    /* \"Purgatory_flattened.sol\":17704:17723  uint256 fromBalance */\n  0x00\n    /* \"Purgatory_flattened.sol\":17726:17741  _balances[from] */\n  swap1\n  dup2\n  mstore\n  0x20\n  dup2\n  swap1\n  mstore\n  0x40\n  swap1\n  keccak256\n  sload\n    /* \"Purgatory_flattened.sol\":17759:17778  fromBalance < value */\n  dup2\n  dup2\n  lt\n    /* \"Purgatory_flattened.sol\":17755:17870  if (fromBalance < value) {... */\n  iszero\n  tag_30\n  jumpi\n    /* \"Purgatory_flattened.sol\":17805:17855  ERC20InsufficientBalance(from, fromBalance, value) */\n  mload(0x40)\n  shl(0xe2, 0x391434e3)\n  dup2\n  mstore\n  sub(shl(0xa0, 0x01), 0x01)\n    /* \"#utility.yul\":3356:3388   */\n  dup6\n  and\n    /* \"Purgatory_flattened.sol\":17805:17855  ERC20InsufficientBalance(from, fromBalance, value) */\n  0x04\n  dup3\n  add\n    /* \"#utility.yul\":3338:3389   */\n  mstore\n    /* \"#utility.yul\":3405:3423   */\n  0x24\n  dup2\n  add\n    /* \"#utility.yul\":3398:3432   */\n  dup3\n  swap1\n  mstore\n    /* \"#utility.yul\":3448:3466   */\n  0x44\n  dup2\n  add\n    /* \"#utility.yul\":3441:3475   */\n  dup4\n  swap1\n  mstore\n    /* \"#utility.yul\":3311:3329   */\n  0x64\n  add\n    /* \"Purgatory_flattened.sol\":17805:17855  ERC20InsufficientBalance(from, fromBalance, value) */\n  tag_11\n    /* \"#utility.yul\":3136:3481   */\n  jump\n    /* \"Purgatory_flattened.sol\":17755:17870  if (fromBalance < value) {... */\ntag_30:\n  sub(shl(0xa0, 0x01), 0x01)\n    /* \"Purgatory_flattened.sol\":17990:18005  _balances[from] */\n  dup5\n  and\n    /* \"Purgatory_flattened.sol\":17990:17999  _balances */\n  0x00\n    /* \"Purgatory_flattened.sol\":17990:18005  _balances[from] */\n  swap1\n  dup2\n  mstore\n  0x20\n  dup2\n  swap1\n  mstore\n  0x40\n  swap1\n  keccak256\n    /* \"Purgatory_flattened.sol\":18008:18027  fromBalance - value */\n  swap1\n  dup3\n  swap1\n  sub\n    /* \"Purgatory_flattened.sol\":17990:18027  _balances[from] = fromBalance - value */\n  swap1\n  sstore\n    /* \"Purgatory_flattened.sol\":17512:18052  if (from == address(0)) {... */\ntag_29:\n  sub(shl(0xa0, 0x01), 0x01)\n    /* \"Purgatory_flattened.sol\":18066:18082  to == address(0) */\n  dup3\n  and\n    /* \"Purgatory_flattened.sol\":18062:18487  if (to == address(0)) {... */\n  tag_33\n  jumpi\n    /* \"Purgatory_flattened.sol\":18229:18241  _totalSupply */\n  0x02\n    /* \"Purgatory_flattened.sol\":18229:18250  _totalSupply -= value */\n  dup1\n  sload\n  dup3\n  swap1\n  sub\n  swap1\n  sstore\n    /* \"Purgatory_flattened.sol\":18062:18487  if (to == address(0)) {... */\n  jump(tag_34)\ntag_33:\n  sub(shl(0xa0, 0x01), 0x01)\n    /* \"Purgatory_flattened.sol\":18440:18453  _balances[to] */\n  dup3\n  and\n    /* \"Purgatory_flattened.sol\":18440:18449  _balances */\n  0x00\n    /* \"Purgatory_flattened.sol\":18440:18453  _balances[to] */\n  swap1\n  dup2\n  mstore\n  0x20\n  dup2\n  swap1\n  mstore\n  0x40\n  swap1\n  keccak256\n    /* \"Purgatory_flattened.sol\":18440:18462  _balances[to] += value */\n  dup1\n  sload\n  dup3\n  add\n  swap1\n  sstore\n    /* \"Purgatory_flattened.sol\":18062:18487  if (to == address(0)) {... */\ntag_34:\n    /* \"Purgatory_flattened.sol\":18517:18519  to */\n  dup2\n  sub(shl(0xa0, 0x01), 0x01)\n    /* \"Purgatory_flattened.sol\":18502:18527  Transfer(from, to, value) */\n  and\n    /* \"Purgatory_flattened.sol\":18511:18515  from */\n  dup4\n  sub(shl(0xa0, 0x01), 0x01)\n    /* \"Purgatory_flattened.sol\":18502:18527  Transfer(from, to, value) */\n  and\n  0xddf252ad1be2c89b69c2b068fc378daa952ba7f163c4a11628f55a4df523b3ef\n    /* \"Purgatory_flattened.sol\":18521:18526  value */\n  dup4\n    /* \"Purgatory_flattened.sol\":18502:18527  Transfer(from, to, value) */\n  mload(0x40)\n  tag_35\n  swap2\n    /* \"#utility.yul\":3632:3657   */\n  dup2\n  mstore\n    /* \"#utility.yul\":3620:3622   */\n  0x20\n    /* \"#utility.yul\":3605:3623   */\n  add\n  swap1\n    /* \"#utility.yul\":3486:3663   */\n  jump\n    /* \"Purgatory_flattened.sol\":18502:18527  Transfer(from, to, value) */\ntag_35:\n  mload(0x40)\n  dup1\n  swap2\n  sub\n  swap1\n  log3\n    /* \"Purgatory_flattened.sol\":17427:18534  function _update(address from, address to, uint256 value) internal virtual {... */\n  pop\n  pop\n  pop\n  jump\t// out\n    /* \"#utility.yul\":14:141   */\ntag_37:\n    /* \"#utility.yul\":75:85   */\n  0x4e487b71\n    /* \"#utility.yul\":70:73   */\n  0xe0\n    /* \"#utility.yul\":66:86   */\n  shl\n    /* \"#utility.yul\":63:64   */\n  0x00\n    /* \"#utility.yul\":56:87   */\n  mstore\n    /* \"#utility.yul\":106:110   */\n  0x41\n    /* \"#utility.yul\":103:104   */\n  0x04\n    /* \"#utility.yul\":96:111   */\n  mstore\n    /* \"#utility.yul\":130:134   */\n  0x24\n    /* \"#utility.yul\":127:128   */\n  0x00\n    /* \"#utility.yul\":120:135   */\n  revert\n    /* \"#utility.yul\":146:526   */\ntag_38:\n    /* \"#utility.yul\":225:226   */\n  0x01\n    /* \"#utility.yul\":221:233   */\n  dup2\n  dup2\n  shr\n  swap1\n    /* \"#utility.yul\":268:280   */\n  dup3\n  and\n  dup1\n    /* \"#utility.yul\":289:350   */\n  tag_45\n  jumpi\n    /* \"#utility.yul\":343:347   */\n  0x7f\n    /* \"#utility.yul\":335:341   */\n  dup3\n    /* \"#utility.yul\":331:348   */\n  and\n    /* \"#utility.yul\":321:348   */\n  swap2\n  pop\n    /* \"#utility.yul\":289:350   */\ntag_45:\n    /* \"#utility.yul\":396:398   */\n  0x20\n    /* \"#utility.yul\":388:394   */\n  dup3\n    /* \"#utility.yul\":385:399   */\n  lt\n    /* \"#utility.yul\":365:383   */\n  dup2\n    /* \"#utility.yul\":362:400   */\n  sub\n    /* \"#utility.yul\":359:520   */\n  tag_46\n  jumpi\n    /* \"#utility.yul\":442:452   */\n  0x4e487b71\n    /* \"#utility.yul\":437:440   */\n  0xe0\n    /* \"#utility.yul\":433:453   */\n  shl\n    /* \"#utility.yul\":430:431   */\n  0x00\n    /* \"#utility.yul\":423:454   */\n  mstore\n    /* \"#utility.yul\":477:481   */\n  0x22\n    /* \"#utility.yul\":474:475   */\n  0x04\n    /* \"#utility.yul\":467:482   */\n  mstore\n    /* \"#utility.yul\":505:509   */\n  0x24\n    /* \"#utility.yul\":502:503   */\n  0x00\n    /* \"#utility.yul\":495:510   */\n  revert\n    /* \"#utility.yul\":359:520   */\ntag_46:\n  pop\n    /* \"#utility.yul\":146:526   */\n  swap2\n  swap1\n  pop\n  jump\t// out\n    /* \"#utility.yul\":657:1175   */\ntag_40:\n    /* \"#utility.yul\":759:761   */\n  0x1f\n    /* \"#utility.yul\":754:757   */\n  dup3\n    /* \"#utility.yul\":751:762   */\n  gt\n    /* \"#utility.yul\":748:1169   */\n  iszero\n  tag_49\n  jumpi\n    /* \"#utility.yul\":795:800   */\n  dup1\n    /* \"#utility.yul\":792:793   */\n  0x00\n    /* \"#utility.yul\":785:801   */\n  mstore\n    /* \"#utility.yul\":839:843   */\n  0x20\n    /* \"#utility.yul\":836:837   */\n  0x00\n    /* \"#utility.yul\":826:844   */\n  keccak256\n    /* \"#utility.yul\":909:911   */\n  0x1f\n    /* \"#utility.yul\":897:907   */\n  dup5\n    /* \"#utility.yul\":893:912   */\n  add\n    /* \"#utility.yul\":890:891   */\n  0x05\n    /* \"#utility.yul\":886:913   */\n  shr\n    /* \"#utility.yul\":880:884   */\n  dup2\n    /* \"#utility.yul\":876:914   */\n  add\n    /* \"#utility.yul\":945:949   */\n  0x20\n    /* \"#utility.yul\":933:943   */\n  dup6\n    /* \"#utility.yul\":930:950   */\n  lt\n    /* \"#utility.yul\":927:974   */\n  iszero\n  tag_50\n  jumpi\n  pop\n    /* \"#utility.yul\":968:972   */\n  dup1\n    /* \"#utility.yul\":927:974   */\ntag_50:\n    /* \"#utility.yul\":1023:1025   */\n  0x1f\n    /* \"#utility.yul\":1018:1021   */\n  dup5\n    /* \"#utility.yul\":1014:1026   */\n  add\n    /* \"#utility.yul\":1011:1012   */\n  0x05\n    /* \"#utility.yul\":1007:1027   */\n  shr\n    /* \"#utility.yul\":1001:1005   */\n  dup3\n    /* \"#utility.yul\":997:1028   */\n  add\n    /* \"#utility.yul\":987:1028   */\n  swap2\n  pop\n    /* \"#utility.yul\":1078:1159   */\ntag_51:\n    /* \"#utility.yul\":1096:1098   */\n  dup2\n    /* \"#utility.yul\":1089:1094   */\n  dup2\n    /* \"#utility.yul\":1086:1099   */\n  lt\n    /* \"#utility.yul\":1078:1159   */\n  iszero\n  tag_53\n  jumpi\n    /* \"#utility.yul\":1155:1156   */\n  0x00\n    /* \"#utility.yul\":1141:1157   */\n  dup2\n  sstore\n    /* \"#utility.yul\":1122:1123   */\n  0x01\n    /* \"#utility.yul\":1111:1124   */\n  add\n    /* \"#utility.yul\":1078:1159   */\n  jump(tag_51)\ntag_53:\n    /* \"#utility.yul\":1082:1085   */\n  pop\n  pop\n    /* \"#utility.yul\":748:1169   */\ntag_49:\n    /* \"#utility.yul\":657:1175   */\n  pop\n  pop\n  pop\n  jump\t// out\n    /* \"#utility.yul\":1351:2696   */\ntag_7:\n    /* \"#utility.yul\":1471:1481   */\n  dup2\n  mload\n  sub(shl(0x40, 0x01), 0x01)\n    /* \"#utility.yul\":1493:1523   */\n  dup2\n  gt\n    /* \"#utility.yul\":1490:1546   */\n  iszero\n  tag_57\n  jumpi\n    /* \"#utility.yul\":1526:1544   */\n  tag_57\n  tag_37\n  jump\t// in\ntag_57:\n    /* \"#utility.yul\":1555:1652   */\n  tag_58\n    /* \"#utility.yul\":1645:1651   */\n  dup2\n    /* \"#utility.yul\":1605:1643   */\n  tag_59\n    /* \"#utility.yul\":1637:1641   */\n  dup5\n    /* \"#utility.yul\":1631:1642   */\n  sload\n    /* \"#utility.yul\":1605:1643   */\n  tag_38\n  jump\t// in\ntag_59:\n    /* \"#utility.yul\":1599:1603   */\n  dup5\n    /* \"#utility.yul\":1555:1652   */\n  tag_40\n  jump\t// in\ntag_58:\n    /* \"#utility.yul\":1707:1711   */\n  0x20\n  dup1\n    /* \"#utility.yul\":1764:1766   */\n  0x1f\n    /* \"#utility.yul\":1753:1767   */\n  dup4\n  gt\n    /* \"#utility.yul\":1781:1782   */\n  0x01\n    /* \"#utility.yul\":1776:2439   */\n  dup2\n  eq\n  tag_61\n  jumpi\n    /* \"#utility.yul\":2483:2484   */\n  0x00\n    /* \"#utility.yul\":2500:2506   */\n  dup5\n    /* \"#utility.yul\":2497:2586   */\n  iszero\n  tag_62\n  jumpi\n  pop\n    /* \"#utility.yul\":2552:2571   */\n  dup6\n  dup4\n  add\n    /* \"#utility.yul\":2546:2572   */\n  mload\n    /* \"#utility.yul\":2497:2586   */\ntag_62:\n  not(0x00)\n    /* \"#utility.yul\":1308:1309   */\n  0x03\n    /* \"#utility.yul\":1304:1315   */\n  dup7\n  swap1\n  shl\n    /* \"#utility.yul\":1300:1324   */\n  shr\n    /* \"#utility.yul\":1296:1325   */\n  not\n    /* \"#utility.yul\":1286:1326   */\n  and\n    /* \"#utility.yul\":1332:1333   */\n  0x01\n    /* \"#utility.yul\":1328:1339   */\n  dup6\n  swap1\n  shl\n    /* \"#utility.yul\":1283:1340   */\n  or\n    /* \"#utility.yul\":2599:2680   */\n  dup6\n  sstore\n    /* \"#utility.yul\":1746:2690   */\n  jump(tag_60)\n    /* \"#utility.yul\":1776:2439   */\ntag_61:\n    /* \"#utility.yul\":604:605   */\n  0x00\n    /* \"#utility.yul\":597:611   */\n  dup6\n  dup2\n  mstore\n    /* \"#utility.yul\":641:645   */\n  0x20\n    /* \"#utility.yul\":628:646   */\n  dup2\n  keccak256\n  not(0x1f)\n    /* \"#utility.yul\":1812:1832   */\n  dup7\n  and\n  swap2\n    /* \"#utility.yul\":1930:2166   */\ntag_65:\n    /* \"#utility.yul\":1944:1951   */\n  dup3\n    /* \"#utility.yul\":1941:1942   */\n  dup2\n    /* \"#utility.yul\":1938:1952   */\n  lt\n    /* \"#utility.yul\":1930:2166   */\n  iszero\n  tag_67\n  jumpi\n    /* \"#utility.yul\":2033:2052   */\n  dup9\n  dup7\n  add\n    /* \"#utility.yul\":2027:2053   */\n  mload\n    /* \"#utility.yul\":2012:2054   */\n  dup3\n  sstore\n    /* \"#utility.yul\":2125:2152   */\n  swap5\n  dup5\n  add\n  swap5\n    /* \"#utility.yul\":2093:2094   */\n  0x01\n    /* \"#utility.yul\":2081:2095   */\n  swap1\n  swap2\n  add\n  swap1\n    /* \"#utility.yul\":1960:1979   */\n  dup5\n  add\n    /* \"#utility.yul\":1930:2166   */\n  jump(tag_65)\ntag_67:\n    /* \"#utility.yul\":1934:1937   */\n  pop\n    /* \"#utility.yul\":2194:2200   */\n  dup6\n    /* \"#utility.yul\":2185:2192   */\n  dup3\n    /* \"#utility.yul\":2182:2201   */\n  lt\n    /* \"#utility.yul\":2179:2380   */\n  iszero\n  tag_68\n  jumpi\n    /* \"#utility.yul\":2255:2274   */\n  dup8\n  dup6\n  add\n    /* \"#utility.yul\":2249:2275   */\n  mload\n  not(0x00)\n    /* \"#utility.yul\":2338:2339   */\n  0x03\n    /* \"#utility.yul\":2334:2348   */\n  dup9\n  swap1\n  shl\n    /* \"#utility.yul\":2350:2353   */\n  0xf8\n    /* \"#utility.yul\":2330:2354   */\n  and\n    /* \"#utility.yul\":2326:2363   */\n  shr\n    /* \"#utility.yul\":2322:2364   */\n  not\n    /* \"#utility.yul\":2307:2365   */\n  and\n    /* \"#utility.yul\":2292:2366   */\n  dup2\n  sstore\n    /* \"#utility.yul\":2179:2380   */\ntag_68:\n  pop\n  pop\n    /* \"#utility.yul\":2426:2427   */\n  0x01\n    /* \"#utility.yul\":2417:2423   */\n  dup5\n    /* \"#utility.yul\":2414:2415   */\n  0x01\n    /* \"#utility.yul\":2410:2424   */\n  shl\n    /* \"#utility.yul\":2406:2428   */\n  add\n    /* \"#utility.yul\":2400:2404   */\n  dup6\n    /* \"#utility.yul\":2393:2429   */\n  sstore\n    /* \"#utility.yul\":1746:2690   */\ntag_60:\n  pop\n  pop\n  pop\n  pop\n    /* \"#utility.yul\":1351:2696   */\n  pop\n  pop\n  jump\t// out\n    /* \"#utility.yul\":2909:3131   */\ntag_28:\n    /* \"#utility.yul\":2974:2983   */\n  dup1\n  dup3\n  add\n    /* \"#utility.yul\":2995:3005   */\n  dup1\n  dup3\n  gt\n    /* \"#utility.yul\":2992:3125   */\n  iszero\n  tag_71\n  jumpi\n    /* \"#utility.yul\":3047:3057   */\n  0x4e487b71\n    /* \"#utility.yul\":3042:3045   */\n  0xe0\n    /* \"#utility.yul\":3038:3058   */\n  shl\n    /* \"#utility.yul\":3035:3036   */\n  0x00\n    /* \"#utility.yul\":3028:3059   */\n  mstore\n    /* \"#utility.yul\":3082:3086   */\n  0x11\n    /* \"#utility.yul\":3079:3080   */\n  0x04\n    /* \"#utility.yul\":3072:3087   */\n  mstore\n    /* \"#utility.yul\":3110:3114   */\n  0x24\n    /* \"#utility.yul\":3107:3108   */\n  0x00\n    /* \"#utility.yul\":3100:3115   */\n  revert\n    /* \"#utility.yul\":2992:3125   */\ntag_71:\n    /* \"#utility.yul\":2909:3131   */\n  swap3\n  swap2\n  pop\n  pop\n  jump\t// out\n    /* \"#utility.yul\":3486:3663   */\ntag_42:\n    /* \"Purgatory_flattened.sol\":25675:26539  contract Purgatory is ERC20, Ownable {... */\n  dataSize(sub_0)\n  dup1\n  dataOffset(sub_0)\n  0x00\n  codecopy\n  0x00\n  return\nstop\n\nsub_0: assembly {\n        /* \"Purgatory_flattened.sol\":25675:26539  contract Purgatory is ERC20, Ownable {... */\n      mstore(0x40, 0x80)\n      callvalue\n      dup1\n      iszero\n      tag_1\n      jumpi\n      0x00\n      dup1\n      revert\n    tag_1:\n      pop\n      jumpi(tag_2, lt(calldatasize, 0x04))\n      shr(0xe0, calldataload(0x00))\n      dup1\n      0x42966c68\n      gt\n      tag_18\n      jumpi\n      dup1\n      0x95d89b41\n      gt\n      tag_19\n      jumpi\n      dup1\n      0x95d89b41\n      eq\n      tag_14\n      jumpi\n      dup1\n      0xa9059cbb\n      eq\n      tag_15\n      jumpi\n      dup1\n      0xdd62ed3e\n      eq\n      tag_16\n      jumpi\n      dup1\n      0xf2fde38b\n      eq\n      tag_17\n      jumpi\n      0x00\n      dup1\n      revert\n    tag_19:\n      dup1\n      0x42966c68\n      eq\n      tag_10\n      jumpi\n      dup1\n      0x70a08231\n      eq\n      tag_11\n      jumpi\n      dup1\n      0x715018a6\n      eq\n      tag_12\n      jumpi\n      dup1\n      0x8da5cb5b\n      eq\n      tag_13\n      jumpi\n      0x00\n      dup1\n      revert\n    tag_18:\n      dup1\n      0x23b872dd\n      gt\n      tag_20\n      jumpi\n      dup1\n      0x23b872dd\n      eq\n      tag_6\n      jumpi\n      dup1\n      0x313ce567\n      eq\n      tag_7\n      jumpi\n      dup1\n      0x32cb6b0c\n      eq\n      tag_8\n      jumpi\n      dup1\n      0x40c10f19\n      eq\n      tag_9\n      jumpi\n      0x00\n      dup1\n      revert\n    tag_20:\n      dup1\n      0x06fdde03\n      eq\n      tag_3\n      jumpi\n      dup1\n      0x095ea7b3\n      eq\n      tag_4\n      jumpi\n      dup1\n      0x18160ddd\n      eq\n      tag_5\n      jumpi\n    tag_2:\n      0x00\n      dup1\n      revert\n        /* \"Purgatory_flattened.sol\":13230:13319  function name() public view virtual returns (string memory) {... */\n    tag_3:\n      tag_21\n      tag_22\n      jump\t// in\n    tag_21:\n      mload(0x40)\n      tag_23\n      swap2\n      swap1\n      tag_24\n      jump\t// in\n    tag_23:\n      mload(0x40)\n      dup1\n      swap2\n      sub\n      swap1\n      return\n        /* \"Purgatory_flattened.sol\":15449:15635  function approve(address spender, uint256 value) public virtual returns (bool) {... */\n    tag_4:\n      tag_25\n      tag_26\n      calldatasize\n      0x04\n      tag_27\n      jump\t// in\n    tag_26:\n      tag_28\n      jump\t// in\n    tag_25:\n      mload(0x40)\n        /* \"#utility.yul\":1169:1183   */\n      swap1\n      iszero\n        /* \"#utility.yul\":1162:1184   */\n      iszero\n        /* \"#utility.yul\":1144:1185   */\n      dup2\n      mstore\n        /* \"#utility.yul\":1132:1134   */\n      0x20\n        /* \"#utility.yul\":1117:1135   */\n      add\n        /* \"Purgatory_flattened.sol\":15449:15635  function approve(address spender, uint256 value) public virtual returns (bool) {... */\n      tag_23\n        /* \"#utility.yul\":1004:1191   */\n      jump\n        /* \"Purgatory_flattened.sol\":14300:14397  function totalSupply() public view virtual returns (uint256) {... */\n    tag_5:\n        /* \"Purgatory_flattened.sol\":14378:14390  _totalSupply */\n      sload(0x02)\n        /* \"Purgatory_flattened.sol\":14300:14397  function totalSupply() public view virtual returns (uint256) {... */\n    tag_31:\n      mload(0x40)\n        /* \"#utility.yul\":1342:1367   */\n      swap1\n      dup2\n      mstore\n        /* \"#utility.yul\":1330:1332   */\n      0x20\n        /* \"#utility.yul\":1315:1333   */\n      add\n        /* \"Purgatory_flattened.sol\":14300:14397  function totalSupply() public view virtual returns (uint256) {... */\n      tag_23\n        /* \"#utility.yul\":1196:1373   */\n      jump\n        /* \"Purgatory_flattened.sol\":16195:16439  function transferFrom(address from, address to, uint256 value) public virtual returns (bool) {... */\n    tag_6:\n      tag_25\n      tag_36\n      calldatasize\n      0x04\n      tag_37\n      jump\t// in\n    tag_36:\n      tag_38\n      jump\t// in\n        /* \"Purgatory_flattened.sol\":14158:14240  function decimals() public view virtual returns (uint8) {... */\n    tag_7:\n      mload(0x40)\n        /* \"Purgatory_flattened.sol\":14231:14233  18 */\n      0x12\n        /* \"#utility.yul\":1853:1889   */\n      dup2\n      mstore\n        /* \"#utility.yul\":1841:1843   */\n      0x20\n        /* \"#utility.yul\":1826:1844   */\n      add\n        /* \"Purgatory_flattened.sol\":14158:14240  function decimals() public view virtual returns (uint8) {... */\n      tag_23\n        /* \"#utility.yul\":1711:1895   */\n      jump\n        /* \"Purgatory_flattened.sol\":25719:25777  uint256 public constant MAX_SUPPLY = 10_000_000 * 10 ** 18 */\n    tag_8:\n      tag_31\n        /* \"Purgatory_flattened.sol\":25756:25777  10_000_000 * 10 ** 18 */\n      0x084595161401484a000000\n        /* \"Purgatory_flattened.sol\":25719:25777  uint256 public constant MAX_SUPPLY = 10_000_000 * 10 ** 18 */\n      dup2\n      jump\n        /* \"Purgatory_flattened.sol\":26184:26362  function mint(address to, uint256 amount) external onlyOwner {... */\n    tag_9:\n      tag_47\n      tag_48\n      calldatasize\n      0x04\n      tag_27\n      jump\t// in\n    tag_48:\n      tag_49\n      jump\t// in\n    tag_47:\n      stop\n        /* \"Purgatory_flattened.sol\":26456:26537  function burn(uint256 amount) external {... */\n    tag_10:\n      tag_47\n      tag_51\n      calldatasize\n      0x04\n      tag_52\n      jump\t// in\n    tag_51:\n      tag_53\n      jump\t// in\n        /* \"Purgatory_flattened.sol\":14455:14571  function balanceOf(address account) public view virtual returns (uint256) {... */\n    tag_11:\n      tag_31\n      tag_55\n      calldatasize\n      0x04\n      tag_56\n      jump\t// in\n    tag_55:\n      sub(shl(0xa0, 0x01), 0x01)\n        /* \"Purgatory_flattened.sol\":14546:14564  _balances[account] */\n      and\n        /* \"Purgatory_flattened.sol\":14520:14527  uint256 */\n      0x00\n        /* \"Purgatory_flattened.sol\":14546:14564  _balances[account] */\n      swap1\n      dup2\n      mstore\n      0x20\n      dup2\n      swap1\n      mstore\n      0x40\n      swap1\n      keccak256\n      sload\n      swap1\n        /* \"Purgatory_flattened.sol\":14455:14571  function balanceOf(address account) public view virtual returns (uint256) {... */\n      jump\n        /* \"Purgatory_flattened.sol\":24628:24729  function renounceOwnership() public virtual onlyOwner {... */\n    tag_12:\n      tag_47\n      tag_60\n      jump\t// in\n        /* \"Purgatory_flattened.sol\":23973:24058  function owner() public view virtual returns (address) {... */\n    tag_13:\n        /* \"Purgatory_flattened.sol\":24045:24051  _owner */\n      sload(0x05)\n        /* \"Purgatory_flattened.sol\":23973:24058  function owner() public view virtual returns (address) {... */\n      mload(0x40)\n      sub(shl(0xa0, 0x01), 0x01)\n        /* \"Purgatory_flattened.sol\":24045:24051  _owner */\n      swap1\n      swap2\n      and\n        /* \"#utility.yul\":2422:2473   */\n      dup2\n      mstore\n        /* \"#utility.yul\":2410:2412   */\n      0x20\n        /* \"#utility.yul\":2395:2413   */\n      add\n        /* \"Purgatory_flattened.sol\":23973:24058  function owner() public view virtual returns (address) {... */\n      tag_23\n        /* \"#utility.yul\":2276:2479   */\n      jump\n        /* \"Purgatory_flattened.sol\":13432:13525  function symbol() public view virtual returns (string memory) {... */\n    tag_14:\n      tag_21\n      tag_66\n      jump\t// in\n        /* \"Purgatory_flattened.sol\":14766:14944  function transfer(address to, uint256 value) public virtual returns (bool) {... */\n    tag_15:\n      tag_25\n      tag_69\n      calldatasize\n      0x04\n      tag_27\n      jump\t// in\n    tag_69:\n      tag_70\n      jump\t// in\n        /* \"Purgatory_flattened.sol\":15002:15142  function allowance(address owner, address spender) public view virtual returns (uint256) {... */\n    tag_16:\n      tag_31\n      tag_73\n      calldatasize\n      0x04\n      tag_74\n      jump\t// in\n    tag_73:\n      sub(shl(0xa0, 0x01), 0x01)\n        /* \"Purgatory_flattened.sol\":15108:15126  _allowances[owner] */\n      swap2\n      dup3\n      and\n        /* \"Purgatory_flattened.sol\":15082:15089  uint256 */\n      0x00\n        /* \"Purgatory_flattened.sol\":15108:15126  _allowances[owner] */\n      swap1\n      dup2\n      mstore\n        /* \"Purgatory_flattened.sol\":15108:15119  _allowances */\n      0x01\n        /* \"Purgatory_flattened.sol\":15108:15126  _allowances[owner] */\n      0x20\n      swap1\n      dup2\n      mstore\n      0x40\n      dup1\n      dup4\n      keccak256\n        /* \"Purgatory_flattened.sol\":15108:15135  _allowances[owner][spender] */\n      swap4\n      swap1\n      swap5\n      and\n      dup3\n      mstore\n      swap2\n      swap1\n      swap2\n      mstore\n      keccak256\n      sload\n      swap1\n        /* \"Purgatory_flattened.sol\":15002:15142  function allowance(address owner, address spender) public view virtual returns (uint256) {... */\n      jump\n        /* \"Purgatory_flattened.sol\":24878:25093  function transferOwnership(address newOwner) public virtual onlyOwner {... */\n    tag_17:\n      tag_47\n      tag_78\n      calldatasize\n      0x04\n      tag_56\n      jump\t// in\n    tag_78:\n      tag_79\n      jump\t// in\n        /* \"Purgatory_flattened.sol\":13230:13319  function name() public view virtual returns (string memory) {... */\n    tag_22:\n        /* \"Purgatory_flattened.sol\":13275:13288  string memory */\n      0x60\n        /* \"Purgatory_flattened.sol\":13307:13312  _name */\n      0x03\n        /* \"Purgatory_flattened.sol\":13300:13312  return _name */\n      dup1\n      sload\n      tag_81\n      swap1\n      tag_82\n      jump\t// in\n    tag_81:\n      dup1\n      0x1f\n      add\n      0x20\n      dup1\n      swap2\n      div\n      mul\n      0x20\n      add\n      mload(0x40)\n      swap1\n      dup2\n      add\n      0x40\n      mstore\n      dup1\n      swap3\n      swap2\n      swap1\n      dup2\n      dup2\n      mstore\n      0x20\n      add\n      dup3\n      dup1\n      sload\n      tag_83\n      swap1\n      tag_82\n      jump\t// in\n    tag_83:\n      dup1\n      iszero\n      tag_84\n      jumpi\n      dup1\n      0x1f\n      lt\n      tag_85\n      jumpi\n      0x0100\n      dup1\n      dup4\n      sload\n      div\n      mul\n      dup4\n      mstore\n      swap2\n      0x20\n      add\n      swap2\n      jump(tag_84)\n    tag_85:\n      dup3\n      add\n      swap2\n      swap1\n      0x00\n      mstore\n      keccak256(0x00, 0x20)\n      swap1\n    tag_86:\n      dup2\n      sload\n      dup2\n      mstore\n      swap1\n      0x01\n      add\n      swap1\n      0x20\n      add\n      dup1\n      dup4\n      gt\n      tag_86\n      jumpi\n      dup3\n      swap1\n      sub\n      0x1f\n      and\n      dup3\n      add\n      swap2\n    tag_84:\n      pop\n      pop\n      pop\n      pop\n      pop\n      swap1\n      pop\n        /* \"Purgatory_flattened.sol\":13230:13319  function name() public view virtual returns (string memory) {... */\n      swap1\n      jump\t// out\n        /* \"Purgatory_flattened.sol\":15449:15635  function approve(address spender, uint256 value) public virtual returns (bool) {... */\n    tag_28:\n        /* \"Purgatory_flattened.sol\":15522:15526  bool */\n      0x00\n        /* \"Purgatory_flattened.sol\":4431:4441  msg.sender */\n      caller\n        /* \"Purgatory_flattened.sol\":15576:15607  _approve(owner, spender, value) */\n      tag_90\n        /* \"Purgatory_flattened.sol\":4431:4441  msg.sender */\n      dup2\n        /* \"Purgatory_flattened.sol\":15592:15599  spender */\n      dup6\n        /* \"Purgatory_flattened.sol\":15601:15606  value */\n      dup6\n        /* \"Purgatory_flattened.sol\":15576:15584  _approve */\n      tag_91\n        /* \"Purgatory_flattened.sol\":15576:15607  _approve(owner, spender, value) */\n      jump\t// in\n    tag_90:\n        /* \"Purgatory_flattened.sol\":15624:15628  true */\n      0x01\n        /* \"Purgatory_flattened.sol\":15617:15628  return true */\n      swap2\n      pop\n      pop\n        /* \"Purgatory_flattened.sol\":15449:15635  function approve(address spender, uint256 value) public virtual returns (bool) {... */\n    tag_87:\n      swap3\n      swap2\n      pop\n      pop\n      jump\t// out\n        /* \"Purgatory_flattened.sol\":16195:16439  function transferFrom(address from, address to, uint256 value) public virtual returns (bool) {... */\n    tag_38:\n        /* \"Purgatory_flattened.sol\":16282:16286  bool */\n      0x00\n        /* \"Purgatory_flattened.sol\":4431:4441  msg.sender */\n      caller\n        /* \"Purgatory_flattened.sol\":16338:16375  _spendAllowance(from, spender, value) */\n      tag_95\n        /* \"Purgatory_flattened.sol\":16354:16358  from */\n      dup6\n        /* \"Purgatory_flattened.sol\":4431:4441  msg.sender */\n      dup3\n        /* \"Purgatory_flattened.sol\":16369:16374  value */\n      dup6\n        /* \"Purgatory_flattened.sol\":16338:16353  _spendAllowance */\n      tag_96\n        /* \"Purgatory_flattened.sol\":16338:16375  _spendAllowance(from, spender, value) */\n      jump\t// in\n    tag_95:\n        /* \"Purgatory_flattened.sol\":16385:16411  _transfer(from, to, value) */\n      tag_97\n        /* \"Purgatory_flattened.sol\":16395:16399  from */\n      dup6\n        /* \"Purgatory_flattened.sol\":16401:16403  to */\n      dup6\n        /* \"Purgatory_flattened.sol\":16405:16410  value */\n      dup6\n        /* \"Purgatory_flattened.sol\":16385:16394  _transfer */\n      tag_98\n        /* \"Purgatory_flattened.sol\":16385:16411  _transfer(from, to, value) */\n      jump\t// in\n    tag_97:\n      pop\n        /* \"Purgatory_flattened.sol\":16428:16432  true */\n      0x01\n      swap5\n        /* \"Purgatory_flattened.sol\":16195:16439  function transferFrom(address from, address to, uint256 value) public virtual returns (bool) {... */\n      swap4\n      pop\n      pop\n      pop\n      pop\n      jump\t// out\n        /* \"Purgatory_flattened.sol\":26184:26362  function mint(address to, uint256 amount) external onlyOwner {... */\n    tag_49:\n        /* \"Purgatory_flattened.sol\":23866:23879  _checkOwner() */\n      tag_101\n        /* \"Purgatory_flattened.sol\":23866:23877  _checkOwner */\n      tag_102\n        /* \"Purgatory_flattened.sol\":23866:23879  _checkOwner() */\n      jump\t// in\n    tag_101:\n        /* \"Purgatory_flattened.sol\":25756:25777  10_000_000 * 10 ** 18 */\n      0x084595161401484a000000\n        /* \"Purgatory_flattened.sol\":26279:26285  amount */\n      dup2\n        /* \"Purgatory_flattened.sol\":26263:26276  totalSupply() */\n      tag_104\n        /* \"Purgatory_flattened.sol\":14378:14390  _totalSupply */\n      sload(0x02)\n      swap1\n        /* \"Purgatory_flattened.sol\":14300:14397  function totalSupply() public view virtual returns (uint256) {... */\n      jump\n        /* \"Purgatory_flattened.sol\":26263:26276  totalSupply() */\n    tag_104:\n        /* \"Purgatory_flattened.sol\":26263:26285  totalSupply() + amount */\n      tag_105\n      swap2\n      swap1\n      tag_106\n      jump\t// in\n    tag_105:\n        /* \"Purgatory_flattened.sol\":26263:26299  totalSupply() + amount <= MAX_SUPPLY */\n      gt\n      iszero\n        /* \"Purgatory_flattened.sol\":26255:26328  require(totalSupply() + amount <= MAX_SUPPLY, \"Toplam arz limiti asildi\") */\n      tag_107\n      jumpi\n      mload(0x40)\n      shl(0xe5, 0x461bcd)\n      dup2\n      mstore\n        /* \"#utility.yul\":3563:3565   */\n      0x20\n        /* \"Purgatory_flattened.sol\":26255:26328  require(totalSupply() + amount <= MAX_SUPPLY, \"Toplam arz limiti asildi\") */\n      0x04\n      dup3\n      add\n        /* \"#utility.yul\":3545:3566   */\n      mstore\n        /* \"#utility.yul\":3602:3604   */\n      0x18\n        /* \"#utility.yul\":3582:3600   */\n      0x24\n      dup3\n      add\n        /* \"#utility.yul\":3575:3605   */\n      mstore\n        /* \"#utility.yul\":3641:3667   */\n      0x546f706c616d2061727a206c696d697469206173696c64690000000000000000\n        /* \"#utility.yul\":3621:3639   */\n      0x44\n      dup3\n      add\n        /* \"#utility.yul\":3614:3668   */\n      mstore\n        /* \"#utility.yul\":3685:3703   */\n      0x64\n      add\n        /* \"Purgatory_flattened.sol\":26255:26328  require(totalSupply() + amount <= MAX_SUPPLY, \"Toplam arz limiti asildi\") */\n    tag_108:\n      mload(0x40)\n      dup1\n      swap2\n      sub\n      swap1\n      revert\n    tag_107:\n        /* \"Purgatory_flattened.sol\":26338:26355  _mint(to, amount) */\n      tag_110\n        /* \"Purgatory_flattened.sol\":26344:26346  to */\n      dup3\n        /* \"Purgatory_flattened.sol\":26348:26354  amount */\n      dup3\n        /* \"Purgatory_flattened.sol\":26338:26343  _mint */\n      tag_111\n        /* \"Purgatory_flattened.sol\":26338:26355  _mint(to, amount) */\n      jump\t// in\n    tag_110:\n        /* \"Purgatory_flattened.sol\":26184:26362  function mint(address to, uint256 amount) external onlyOwner {... */\n      pop\n      pop\n      jump\t// out\n        /* \"Purgatory_flattened.sol\":26456:26537  function burn(uint256 amount) external {... */\n    tag_53:\n        /* \"Purgatory_flattened.sol\":26505:26530  _burn(msg.sender, amount) */\n      tag_113\n        /* \"Purgatory_flattened.sol\":26511:26521  msg.sender */\n      caller\n        /* \"Purgatory_flattened.sol\":26523:26529  amount */\n      dup3\n        /* \"Purgatory_flattened.sol\":26505:26510  _burn */\n      tag_114\n        /* \"Purgatory_flattened.sol\":26505:26530  _burn(msg.sender, amount) */\n      jump\t// in\n    tag_113:\n        /* \"Purgatory_flattened.sol\":26456:26537  function burn(uint256 amount) external {... */\n      pop\n      jump\t// out\n        /* \"Purgatory_flattened.sol\":24628:24729  function renounceOwnership() public virtual onlyOwner {... */\n    tag_60:\n        /* \"Purgatory_flattened.sol\":23866:23879  _checkOwner() */\n      tag_117\n        /* \"Purgatory_flattened.sol\":23866:23877  _checkOwner */\n      tag_102\n        /* \"Purgatory_flattened.sol\":23866:23879  _checkOwner() */\n      jump\t// in\n    tag_117:\n        /* \"Purgatory_flattened.sol\":24692:24722  _transferOwnership(address(0)) */\n      tag_119\n        /* \"Purgatory_flattened.sol\":24719:24720  0 */\n      0x00\n        /* \"Purgatory_flattened.sol\":24692:24710  _transferOwnership */\n      tag_120\n        /* \"Purgatory_flattened.sol\":24692:24722  _transferOwnership(address(0)) */\n      jump\t// in\n    tag_119:\n        /* \"Purgatory_flattened.sol\":24628:24729  function renounceOwnership() public virtual onlyOwner {... */\n      jump\t// out\n        /* \"Purgatory_flattened.sol\":13432:13525  function symbol() public view virtual returns (string memory) {... */\n    tag_66:\n        /* \"Purgatory_flattened.sol\":13479:13492  string memory */\n      0x60\n        /* \"Purgatory_flattened.sol\":13511:13518  _symbol */\n      0x04\n        /* \"Purgatory_flattened.sol\":13504:13518  return _symbol */\n      dup1\n      sload\n      tag_81\n      swap1\n      tag_82\n      jump\t// in\n        /* \"Purgatory_flattened.sol\":14766:14944  function transfer(address to, uint256 value) public virtual returns (bool) {... */\n    tag_70:\n        /* \"Purgatory_flattened.sol\":14835:14839  bool */\n      0x00\n        /* \"Purgatory_flattened.sol\":4431:4441  msg.sender */\n      caller\n        /* \"Purgatory_flattened.sol\":14889:14916  _transfer(owner, to, value) */\n      tag_90\n        /* \"Purgatory_flattened.sol\":4431:4441  msg.sender */\n      dup2\n        /* \"Purgatory_flattened.sol\":14906:14908  to */\n      dup6\n        /* \"Purgatory_flattened.sol\":14910:14915  value */\n      dup6\n        /* \"Purgatory_flattened.sol\":14889:14898  _transfer */\n      tag_98\n        /* \"Purgatory_flattened.sol\":14889:14916  _transfer(owner, to, value) */\n      jump\t// in\n        /* \"Purgatory_flattened.sol\":24878:25093  function transferOwnership(address newOwner) public virtual onlyOwner {... */\n    tag_79:\n        /* \"Purgatory_flattened.sol\":23866:23879  _checkOwner() */\n      tag_133\n        /* \"Purgatory_flattened.sol\":23866:23877  _checkOwner */\n      tag_102\n        /* \"Purgatory_flattened.sol\":23866:23879  _checkOwner() */\n      jump\t// in\n    tag_133:\n      sub(shl(0xa0, 0x01), 0x01)\n        /* \"Purgatory_flattened.sol\":24962:24984  newOwner == address(0) */\n      dup2\n      and\n        /* \"Purgatory_flattened.sol\":24958:25049  if (newOwner == address(0)) {... */\n      tag_135\n      jumpi\n        /* \"Purgatory_flattened.sol\":25007:25038  OwnableInvalidOwner(address(0)) */\n      mload(0x40)\n      shl(0xe0, 0x1e4fbdf7)\n      dup2\n      mstore\n        /* \"Purgatory_flattened.sol\":25035:25036  0 */\n      0x00\n        /* \"Purgatory_flattened.sol\":25007:25038  OwnableInvalidOwner(address(0)) */\n      0x04\n      dup3\n      add\n        /* \"#utility.yul\":2422:2473   */\n      mstore\n        /* \"#utility.yul\":2395:2413   */\n      0x24\n      add\n        /* \"Purgatory_flattened.sol\":25007:25038  OwnableInvalidOwner(address(0)) */\n      tag_108\n        /* \"#utility.yul\":2276:2479   */\n      jump\n        /* \"Purgatory_flattened.sol\":24958:25049  if (newOwner == address(0)) {... */\n    tag_135:\n        /* \"Purgatory_flattened.sol\":25058:25086  _transferOwnership(newOwner) */\n      tag_113\n        /* \"Purgatory_flattened.sol\":25077:25085  newOwner */\n      dup2\n        /* \"Purgatory_flattened.sol\":25058:25076  _transferOwnership */\n      tag_120\n        /* \"Purgatory_flattened.sol\":25058:25086  _transferOwnership(newOwner) */\n      jump\t// in\n        /* \"Purgatory_flattened.sol\":20145:20273  function _approve(address owner, address spender, uint256 value) internal {... */\n    tag_91:\n        /* \"Purgatory_flattened.sol\":20229:20266  _approve(owner, spender, value, true) */\n      tag_140\n        /* \"Purgatory_flattened.sol\":20238:20243  owner */\n      dup4\n        /* \"Purgatory_flattened.sol\":20245:20252  spender */\n      dup4\n        /* \"Purgatory_flattened.sol\":20254:20259  value */\n      dup4\n        /* \"Purgatory_flattened.sol\":20261:20265  true */\n      0x01\n        /* \"Purgatory_flattened.sol\":20229:20237  _approve */\n      tag_141\n        /* \"Purgatory_flattened.sol\":20229:20266  _approve(owner, spender, value, true) */\n      jump\t// in\n    tag_140:\n        /* \"Purgatory_flattened.sol\":20145:20273  function _approve(address owner, address spender, uint256 value) internal {... */\n      pop\n      pop\n      pop\n      jump\t// out\n        /* \"Purgatory_flattened.sol\":21819:22296  function _spendAllowance(address owner, address spender, uint256 value) internal virtual {... */\n    tag_96:\n      sub(shl(0xa0, 0x01), 0x01)\n        /* \"Purgatory_flattened.sol\":15108:15126  _allowances[owner] */\n      dup4\n      dup2\n      and\n        /* \"Purgatory_flattened.sol\":21918:21942  uint256 currentAllowance */\n      0x00\n        /* \"Purgatory_flattened.sol\":15108:15126  _allowances[owner] */\n      swap1\n      dup2\n      mstore\n        /* \"Purgatory_flattened.sol\":15108:15119  _allowances */\n      0x01\n        /* \"Purgatory_flattened.sol\":15108:15126  _allowances[owner] */\n      0x20\n      swap1\n      dup2\n      mstore\n      0x40\n      dup1\n      dup4\n      keccak256\n        /* \"Purgatory_flattened.sol\":15108:15135  _allowances[owner][spender] */\n      swap4\n      dup7\n      and\n      dup4\n      mstore\n      swap3\n      swap1\n      mstore\n      keccak256\n      sload\n      not(0x00)\n        /* \"Purgatory_flattened.sol\":21984:22021  currentAllowance != type(uint256).max */\n      dup2\n      eq\n        /* \"Purgatory_flattened.sol\":21980:22290  if (currentAllowance != type(uint256).max) {... */\n      tag_148\n      jumpi\n        /* \"Purgatory_flattened.sol\":22060:22065  value */\n      dup2\n        /* \"Purgatory_flattened.sol\":22041:22057  currentAllowance */\n      dup2\n        /* \"Purgatory_flattened.sol\":22041:22065  currentAllowance < value */\n      lt\n        /* \"Purgatory_flattened.sol\":22037:22167  if (currentAllowance < value) {... */\n      iszero\n      tag_145\n      jumpi\n        /* \"Purgatory_flattened.sol\":22092:22152  ERC20InsufficientAllowance(spender, currentAllowance, value) */\n      mload(0x40)\n      shl(0xe1, 0x7dc7a0d9)\n      dup2\n      mstore\n      sub(shl(0xa0, 0x01), 0x01)\n        /* \"#utility.yul\":3934:3966   */\n      dup5\n      and\n        /* \"Purgatory_flattened.sol\":22092:22152  ERC20InsufficientAllowance(spender, currentAllowance, value) */\n      0x04\n      dup3\n      add\n        /* \"#utility.yul\":3916:3967   */\n      mstore\n        /* \"#utility.yul\":3983:4001   */\n      0x24\n      dup2\n      add\n        /* \"#utility.yul\":3976:4010   */\n      dup3\n      swap1\n      mstore\n        /* \"#utility.yul\":4026:4044   */\n      0x44\n      dup2\n      add\n        /* \"#utility.yul\":4019:4053   */\n      dup4\n      swap1\n      mstore\n        /* \"#utility.yul\":3889:3907   */\n      0x64\n      add\n        /* \"Purgatory_flattened.sol\":22092:22152  ERC20InsufficientAllowance(spender, currentAllowance, value) */\n      tag_108\n        /* \"#utility.yul\":3714:4059   */\n      jump\n        /* \"Purgatory_flattened.sol\":22037:22167  if (currentAllowance < value) {... */\n    tag_145:\n        /* \"Purgatory_flattened.sol\":22208:22265  _approve(owner, spender, currentAllowance - value, false) */\n      tag_148\n        /* \"Purgatory_flattened.sol\":22217:22222  owner */\n      dup5\n        /* \"Purgatory_flattened.sol\":22224:22231  spender */\n      dup5\n        /* \"Purgatory_flattened.sol\":22252:22257  value */\n      dup5\n        /* \"Purgatory_flattened.sol\":22233:22249  currentAllowance */\n      dup5\n        /* \"Purgatory_flattened.sol\":22233:22257  currentAllowance - value */\n      sub\n        /* \"Purgatory_flattened.sol\":22259:22264  false */\n      0x00\n        /* \"Purgatory_flattened.sol\":22208:22216  _approve */\n      tag_141\n        /* \"Purgatory_flattened.sol\":22208:22265  _approve(owner, spender, currentAllowance - value, false) */\n      jump\t// in\n    tag_148:\n        /* \"Purgatory_flattened.sol\":21908:22296  {... */\n      pop\n        /* \"Purgatory_flattened.sol\":21819:22296  function _spendAllowance(address owner, address spender, uint256 value) internal virtual {... */\n      pop\n      pop\n      pop\n      jump\t// out\n        /* \"Purgatory_flattened.sol\":16812:17112  function _transfer(address from, address to, uint256 value) internal {... */\n    tag_98:\n      sub(shl(0xa0, 0x01), 0x01)\n        /* \"Purgatory_flattened.sol\":16895:16913  from == address(0) */\n      dup4\n      and\n        /* \"Purgatory_flattened.sol\":16891:16977  if (from == address(0)) {... */\n      tag_150\n      jumpi\n        /* \"Purgatory_flattened.sol\":16936:16966  ERC20InvalidSender(address(0)) */\n      mload(0x40)\n      shl(0xe1, 0x4b637e8f)\n      dup2\n      mstore\n        /* \"Purgatory_flattened.sol\":16963:16964  0 */\n      0x00\n        /* \"Purgatory_flattened.sol\":16936:16966  ERC20InvalidSender(address(0)) */\n      0x04\n      dup3\n      add\n        /* \"#utility.yul\":2422:2473   */\n      mstore\n        /* \"#utility.yul\":2395:2413   */\n      0x24\n      add\n        /* \"Purgatory_flattened.sol\":16936:16966  ERC20InvalidSender(address(0)) */\n      tag_108\n        /* \"#utility.yul\":2276:2479   */\n      jump\n        /* \"Purgatory_flattened.sol\":16891:16977  if (from == address(0)) {... */\n    tag_150:\n      sub(shl(0xa0, 0x01), 0x01)\n        /* \"Purgatory_flattened.sol\":16990:17006  to == address(0) */\n      dup3\n      and\n        /* \"Purgatory_flattened.sol\":16986:17072  if (to == address(0)) {... */\n      tag_152\n      jumpi\n        /* \"Purgatory_flattened.sol\":17029:17061  ERC20InvalidReceiver(address(0)) */\n      mload(0x40)\n      shl(0xe0, 0xec442f05)\n      dup2\n      mstore\n        /* \"Purgatory_flattened.sol\":17058:17059  0 */\n      0x00\n        /* \"Purgatory_flattened.sol\":17029:17061  ERC20InvalidReceiver(address(0)) */\n      0x04\n      dup3\n      add\n        /* \"#utility.yul\":2422:2473   */\n      mstore\n        /* \"#utility.yul\":2395:2413   */\n      0x24\n      add\n        /* \"Purgatory_flattened.sol\":17029:17061  ERC20InvalidReceiver(address(0)) */\n      tag_108\n        /* \"#utility.yul\":2276:2479   */\n      jump\n        /* \"Purgatory_flattened.sol\":16986:17072  if (to == address(0)) {... */\n    tag_152:\n        /* \"Purgatory_flattened.sol\":17081:17105  _update(from, to, value) */\n      tag_140\n        /* \"Purgatory_flattened.sol\":17089:17093  from */\n      dup4\n        /* \"Purgatory_flattened.sol\":17095:17097  to */\n      dup4\n        /* \"Purgatory_flattened.sol\":17099:17104  value */\n      dup4\n        /* \"Purgatory_flattened.sol\":17081:17088  _update */\n      tag_155\n        /* \"Purgatory_flattened.sol\":17081:17105  _update(from, to, value) */\n      jump\t// in\n        /* \"Purgatory_flattened.sol\":24131:24293  function _checkOwner() internal view virtual {... */\n    tag_102:\n        /* \"Purgatory_flattened.sol\":24045:24051  _owner */\n      and(sub(shl(0xa0, 0x01), 0x01), sload(0x05))\n        /* \"Purgatory_flattened.sol\":4431:4441  msg.sender */\n      caller\n        /* \"Purgatory_flattened.sol\":24190:24213  owner() != _msgSender() */\n      eq\n        /* \"Purgatory_flattened.sol\":24186:24287  if (owner() != _msgSender()) {... */\n      tag_119\n      jumpi\n        /* \"Purgatory_flattened.sol\":24236:24276  OwnableUnauthorizedAccount(_msgSender()) */\n      mload(0x40)\n      shl(0xe0, 0x118cdaa7)\n      dup2\n      mstore\n        /* \"Purgatory_flattened.sol\":4431:4441  msg.sender */\n      caller\n        /* \"Purgatory_flattened.sol\":24236:24276  OwnableUnauthorizedAccount(_msgSender()) */\n      0x04\n      dup3\n      add\n        /* \"#utility.yul\":2422:2473   */\n      mstore\n        /* \"#utility.yul\":2395:2413   */\n      0x24\n      add\n        /* \"Purgatory_flattened.sol\":24236:24276  OwnableUnauthorizedAccount(_msgSender()) */\n      tag_108\n        /* \"#utility.yul\":2276:2479   */\n      jump\n        /* \"Purgatory_flattened.sol\":18877:19085  function _mint(address account, uint256 value) internal {... */\n    tag_111:\n      sub(shl(0xa0, 0x01), 0x01)\n        /* \"Purgatory_flattened.sol\":18947:18968  account == address(0) */\n      dup3\n      and\n        /* \"Purgatory_flattened.sol\":18943:19034  if (account == address(0)) {... */\n      tag_163\n      jumpi\n        /* \"Purgatory_flattened.sol\":18991:19023  ERC20InvalidReceiver(address(0)) */\n      mload(0x40)\n      shl(0xe0, 0xec442f05)\n      dup2\n      mstore\n        /* \"Purgatory_flattened.sol\":19020:19021  0 */\n      0x00\n        /* \"Purgatory_flattened.sol\":18991:19023  ERC20InvalidReceiver(address(0)) */\n      0x04\n      dup3\n      add\n        /* \"#utility.yul\":2422:2473   */\n      mstore\n        /* \"#utility.yul\":2395:2413   */\n      0x24\n      add\n        /* \"Purgatory_flattened.sol\":18991:19023  ERC20InvalidReceiver(address(0)) */\n      tag_108\n        /* \"#utility.yul\":2276:2479   */\n      jump\n        /* \"Purgatory_flattened.sol\":18943:19034  if (account == address(0)) {... */\n    tag_163:\n        /* \"Purgatory_flattened.sol\":19043:19078  _update(address(0), account, value) */\n      tag_110\n        /* \"Purgatory_flattened.sol\":19059:19060  0 */\n      0x00\n        /* \"Purgatory_flattened.sol\":19063:19070  account */\n      dup4\n        /* \"Purgatory_flattened.sol\":19072:19077  value */\n      dup4\n        /* \"Purgatory_flattened.sol\":19043:19050  _update */\n      tag_155\n        /* \"Purgatory_flattened.sol\":19043:19078  _update(address(0), account, value) */\n      jump\t// in\n        /* \"Purgatory_flattened.sol\":19403:19609  function _burn(address account, uint256 value) internal {... */\n    tag_114:\n      sub(shl(0xa0, 0x01), 0x01)\n        /* \"Purgatory_flattened.sol\":19473:19494  account == address(0) */\n      dup3\n      and\n        /* \"Purgatory_flattened.sol\":19469:19558  if (account == address(0)) {... */\n      tag_167\n      jumpi\n        /* \"Purgatory_flattened.sol\":19517:19547  ERC20InvalidSender(address(0)) */\n      mload(0x40)\n      shl(0xe1, 0x4b637e8f)\n      dup2\n      mstore\n        /* \"Purgatory_flattened.sol\":19544:19545  0 */\n      0x00\n        /* \"Purgatory_flattened.sol\":19517:19547  ERC20InvalidSender(address(0)) */\n      0x04\n      dup3\n      add\n        /* \"#utility.yul\":2422:2473   */\n      mstore\n        /* \"#utility.yul\":2395:2413   */\n      0x24\n      add\n        /* \"Purgatory_flattened.sol\":19517:19547  ERC20InvalidSender(address(0)) */\n      tag_108\n        /* \"#utility.yul\":2276:2479   */\n      jump\n        /* \"Purgatory_flattened.sol\":19469:19558  if (account == address(0)) {... */\n    tag_167:\n        /* \"Purgatory_flattened.sol\":19567:19602  _update(account, address(0), value) */\n      tag_110\n        /* \"Purgatory_flattened.sol\":19575:19582  account */\n      dup3\n        /* \"Purgatory_flattened.sol\":19592:19593  0 */\n      0x00\n        /* \"Purgatory_flattened.sol\":19596:19601  value */\n      dup4\n        /* \"Purgatory_flattened.sol\":19567:19574  _update */\n      tag_155\n        /* \"Purgatory_flattened.sol\":19567:19602  _update(account, address(0), value) */\n      jump\t// in\n        /* \"Purgatory_flattened.sol\":25247:25434  function _transferOwnership(address newOwner) internal virtual {... */\n    tag_120:\n        /* \"Purgatory_flattened.sol\":25339:25345  _owner */\n      0x05\n      dup1\n      sload\n      sub(shl(0xa0, 0x01), 0x01)\n        /* \"Purgatory_flattened.sol\":25355:25372  _owner = newOwner */\n      dup4\n      dup2\n      and\n      not(sub(shl(0xa0, 0x01), 0x01))\n      dup4\n      and\n      dup2\n      or\n      swap1\n      swap4\n      sstore\n        /* \"Purgatory_flattened.sol\":25387:25427  OwnershipTransferred(oldOwner, newOwner) */\n      mload(0x40)\n        /* \"Purgatory_flattened.sol\":25339:25345  _owner */\n      swap2\n      and\n      swap2\n        /* \"Purgatory_flattened.sol\":25355:25372  _owner = newOwner */\n      swap1\n        /* \"Purgatory_flattened.sol\":25339:25345  _owner */\n      dup3\n      swap1\n        /* \"Purgatory_flattened.sol\":25387:25427  OwnershipTransferred(oldOwner, newOwner) */\n      0x8be0079c531659141344cd1fd0a4f28419497f9722a3daafe3b4186f6b6457e0\n      swap1\n        /* \"Purgatory_flattened.sol\":25320:25336  address oldOwner */\n      0x00\n      swap1\n        /* \"Purgatory_flattened.sol\":25387:25427  OwnershipTransferred(oldOwner, newOwner) */\n      log3\n        /* \"Purgatory_flattened.sol\":25310:25434  {... */\n      pop\n        /* \"Purgatory_flattened.sol\":25247:25434  function _transferOwnership(address newOwner) internal virtual {... */\n      pop\n      jump\t// out\n        /* \"Purgatory_flattened.sol\":21105:21537  function _approve(address owner, address spender, uint256 value, bool emitEvent) internal virtual {... */\n    tag_141:\n      sub(shl(0xa0, 0x01), 0x01)\n        /* \"Purgatory_flattened.sol\":21217:21236  owner == address(0) */\n      dup5\n      and\n        /* \"Purgatory_flattened.sol\":21213:21302  if (owner == address(0)) {... */\n      tag_172\n      jumpi\n        /* \"Purgatory_flattened.sol\":21259:21291  ERC20InvalidApprover(address(0)) */\n      mload(0x40)\n      shl(0xe0, 0xe602df05)\n      dup2\n      mstore\n        /* \"Purgatory_flattened.sol\":21288:21289  0 */\n      0x00\n        /* \"Purgatory_flattened.sol\":21259:21291  ERC20InvalidApprover(address(0)) */\n      0x04\n      dup3\n      add\n        /* \"#utility.yul\":2422:2473   */\n      mstore\n        /* \"#utility.yul\":2395:2413   */\n      0x24\n      add\n        /* \"Purgatory_flattened.sol\":21259:21291  ERC20InvalidApprover(address(0)) */\n      tag_108\n        /* \"#utility.yul\":2276:2479   */\n      jump\n        /* \"Purgatory_flattened.sol\":21213:21302  if (owner == address(0)) {... */\n    tag_172:\n      sub(shl(0xa0, 0x01), 0x01)\n        /* \"Purgatory_flattened.sol\":21315:21336  spender == address(0) */\n      dup4\n      and\n        /* \"Purgatory_flattened.sol\":21311:21401  if (spender == address(0)) {... */\n      tag_174\n      jumpi\n        /* \"Purgatory_flattened.sol\":21359:21390  ERC20InvalidSpender(address(0)) */\n      mload(0x40)\n      shl(0xe1, 0x4a1406b1)\n      dup2\n      mstore\n        /* \"Purgatory_flattened.sol\":21387:21388  0 */\n      0x00\n        /* \"Purgatory_flattened.sol\":21359:21390  ERC20InvalidSpender(address(0)) */\n      0x04\n      dup3\n      add\n        /* \"#utility.yul\":2422:2473   */\n      mstore\n        /* \"#utility.yul\":2395:2413   */\n      0x24\n      add\n        /* \"Purgatory_flattened.sol\":21359:21390  ERC20InvalidSpender(address(0)) */\n      tag_108\n        /* \"#utility.yul\":2276:2479   */\n      jump\n        /* \"Purgatory_flattened.sol\":21311:21401  if (spender == address(0)) {... */\n    tag_174:\n      sub(shl(0xa0, 0x01), 0x01)\n        /* \"Purgatory_flattened.sol\":21410:21428  _allowances[owner] */\n      dup1\n      dup6\n      and\n      0x00\n      swap1\n      dup2\n      mstore\n        /* \"Purgatory_flattened.sol\":21410:21421  _allowances */\n      0x01\n        /* \"Purgatory_flattened.sol\":21410:21428  _allowances[owner] */\n      0x20\n      swap1\n      dup2\n      mstore\n      0x40\n      dup1\n      dup4\n      keccak256\n        /* \"Purgatory_flattened.sol\":21410:21437  _allowances[owner][spender] */\n      swap4\n      dup8\n      and\n      dup4\n      mstore\n      swap3\n      swap1\n      mstore\n      keccak256\n        /* \"Purgatory_flattened.sol\":21410:21445  _allowances[owner][spender] = value */\n      dup3\n      swap1\n      sstore\n        /* \"Purgatory_flattened.sol\":21455:21531  if (emitEvent) {... */\n      dup1\n      iszero\n      tag_148\n      jumpi\n        /* \"Purgatory_flattened.sol\":21505:21512  spender */\n      dup3\n      sub(shl(0xa0, 0x01), 0x01)\n        /* \"Purgatory_flattened.sol\":21489:21520  Approval(owner, spender, value) */\n      and\n        /* \"Purgatory_flattened.sol\":21498:21503  owner */\n      dup5\n      sub(shl(0xa0, 0x01), 0x01)\n        /* \"Purgatory_flattened.sol\":21489:21520  Approval(owner, spender, value) */\n      and\n      0x8c5be1e5ebec7d5bd14f71427d1e84f3dd0314c0f7b2291e5b200ac8c7c3b925\n        /* \"Purgatory_flattened.sol\":21514:21519  value */\n      dup5\n        /* \"Purgatory_flattened.sol\":21489:21520  Approval(owner, spender, value) */\n      mload(0x40)\n      tag_177\n      swap2\n        /* \"#utility.yul\":1342:1367   */\n      dup2\n      mstore\n        /* \"#utility.yul\":1330:1332   */\n      0x20\n        /* \"#utility.yul\":1315:1333   */\n      add\n      swap1\n        /* \"#utility.yul\":1196:1373   */\n      jump\n        /* \"Purgatory_flattened.sol\":21489:21520  Approval(owner, spender, value) */\n    tag_177:\n      mload(0x40)\n      dup1\n      swap2\n      sub\n      swap1\n      log3\n        /* \"Purgatory_flattened.sol\":21105:21537  function _approve(address owner, address spender, uint256 value, bool emitEvent) internal virtual {... */\n      pop\n      pop\n      pop\n      pop\n      jump\t// out\n        /* \"Purgatory_flattened.sol\":17427:18534  function _update(address from, address to, uint256 value) internal virtual {... */\n    tag_155:\n      sub(shl(0xa0, 0x01), 0x01)\n        /* \"Purgatory_flattened.sol\":17516:17534  from == address(0) */\n      dup4\n      and\n        /* \"Purgatory_flattened.sol\":17512:18052  if (from == address(0)) {... */\n      tag_179\n      jumpi\n        /* \"Purgatory_flattened.sol\":17668:17673  value */\n      dup1\n        /* \"Purgatory_flattened.sol\":17652:17664  _totalSupply */\n      0x02\n      0x00\n        /* \"Purgatory_flattened.sol\":17652:17673  _totalSupply += value */\n      dup3\n      dup3\n      sload\n      tag_180\n      swap2\n      swap1\n      tag_106\n      jump\t// in\n    tag_180:\n      swap1\n      swap2\n      sstore\n      pop\n        /* \"Purgatory_flattened.sol\":17512:18052  if (from == address(0)) {... */\n      tag_181\n      swap1\n      pop\n      jump\n    tag_179:\n      sub(shl(0xa0, 0x01), 0x01)\n        /* \"Purgatory_flattened.sol\":17726:17741  _balances[from] */\n      dup4\n      and\n        /* \"Purgatory_flattened.sol\":17704:17723  uint256 fromBalance */\n      0x00\n        /* \"Purgatory_flattened.sol\":17726:17741  _balances[from] */\n      swap1\n      dup2\n      mstore\n      0x20\n      dup2\n      swap1\n      mstore\n      0x40\n      swap1\n      keccak256\n      sload\n        /* \"Purgatory_flattened.sol\":17759:17778  fromBalance < value */\n      dup2\n      dup2\n      lt\n        /* \"Purgatory_flattened.sol\":17755:17870  if (fromBalance < value) {... */\n      iszero\n      tag_182\n      jumpi\n        /* \"Purgatory_flattened.sol\":17805:17855  ERC20InsufficientBalance(from, fromBalance, value) */\n      mload(0x40)\n      shl(0xe2, 0x391434e3)\n      dup2\n      mstore\n      sub(shl(0xa0, 0x01), 0x01)\n        /* \"#utility.yul\":3934:3966   */\n      dup6\n      and\n        /* \"Purgatory_flattened.sol\":17805:17855  ERC20InsufficientBalance(from, fromBalance, value) */\n      0x04\n      dup3\n      add\n        /* \"#utility.yul\":3916:3967   */\n      mstore\n        /* \"#utility.yul\":3983:4001   */\n      0x24\n      dup2\n      add\n        /* \"#utility.yul\":3976:4010   */\n      dup3\n      swap1\n      mstore\n        /* \"#utility.yul\":4026:4044   */\n      0x44\n      dup2\n      add\n        /* \"#utility.yul\":4019:4053   */\n      dup4\n      swap1\n      mstore\n        /* \"#utility.yul\":3889:3907   */\n      0x64\n      add\n        /* \"Purgatory_flattened.sol\":17805:17855  ERC20InsufficientBalance(from, fromBalance, value) */\n      tag_108\n        /* \"#utility.yul\":3714:4059   */\n      jump\n        /* \"Purgatory_flattened.sol\":17755:17870  if (fromBalance < value) {... */\n    tag_182:\n      sub(shl(0xa0, 0x01), 0x01)\n        /* \"Purgatory_flattened.sol\":17990:18005  _balances[from] */\n      dup5\n      and\n        /* \"Purgatory_flattened.sol\":17990:17999  _balances */\n      0x00\n        /* \"Purgatory_flattened.sol\":17990:18005  _balances[from] */\n      swap1\n      dup2\n      mstore\n      0x20\n      dup2\n      swap1\n      mstore\n      0x40\n      swap1\n      keccak256\n        /* \"Purgatory_flattened.sol\":18008:18027  fromBalance - value */\n      swap1\n      dup3\n      swap1\n      sub\n        /* \"Purgatory_flattened.sol\":17990:18027  _balances[from] = fromBalance - value */\n      swap1\n      sstore\n        /* \"Purgatory_flattened.sol\":17512:18052  if (from == address(0)) {... */\n    tag_181:\n      sub(shl(0xa0, 0x01), 0x01)\n        /* \"Purgatory_flattened.sol\":18066:18082  to == address(0) */\n      dup3\n      and\n        /* \"Purgatory_flattened.sol\":18062:18487  if (to == address(0)) {... */\n      tag_184\n      jumpi\n        /* \"Purgatory_flattened.sol\":18229:18241  _totalSupply */\n      0x02\n        /* \"Purgatory_flattened.sol\":18229:18250  _totalSupply -= value */\n      dup1\n      sload\n      dup3\n      swap1\n      sub\n      swap1\n      sstore\n        /* \"Purgatory_flattened.sol\":18062:18487  if (to == address(0)) {... */\n      jump(tag_185)\n    tag_184:\n      sub(shl(0xa0, 0x01), 0x01)\n        /* \"Purgatory_flattened.sol\":18440:18453  _balances[to] */\n      dup3\n      and\n        /* \"Purgatory_flattened.sol\":18440:18449  _balances */\n      0x00\n        /* \"Purgatory_flattened.sol\":18440:18453  _balances[to] */\n      swap1\n      dup2\n      mstore\n      0x20\n      dup2\n      swap1\n      mstore\n      0x40\n      swap1\n      keccak256\n        /* \"Purgatory_flattened.sol\":18440:18462  _balances[to] += value */\n      dup1\n      sload\n      dup3\n      add\n      swap1\n      sstore\n        /* \"Purgatory_flattened.sol\":18062:18487  if (to == address(0)) {... */\n    tag_185:\n        /* \"Purgatory_flattened.sol\":18517:18519  to */\n      dup2\n      sub(shl(0xa0, 0x01), 0x01)\n        /* \"Purgatory_flattened.sol\":18502:18527  Transfer(from, to, value) */\n      and\n        /* \"Purgatory_flattened.sol\":18511:18515  from */\n      dup4\n      sub(shl(0xa0, 0x01), 0x01)\n        /* \"Purgatory_flattened.sol\":18502:18527  Transfer(from, to, value) */\n      and\n      0xddf252ad1be2c89b69c2b068fc378daa952ba7f163c4a11628f55a4df523b3ef\n        /* \"Purgatory_flattened.sol\":18521:18526  value */\n      dup4\n        /* \"Purgatory_flattened.sol\":18502:18527  Transfer(from, to, value) */\n      mload(0x40)\n      tag_186\n      swap2\n        /* \"#utility.yul\":1342:1367   */\n      dup2\n      mstore\n        /* \"#utility.yul\":1330:1332   */\n      0x20\n        /* \"#utility.yul\":1315:1333   */\n      add\n      swap1\n        /* \"#utility.yul\":1196:1373   */\n      jump\n        /* \"Purgatory_flattened.sol\":18502:18527  Transfer(from, to, value) */\n    tag_186:\n      mload(0x40)\n      dup1\n      swap2\n      sub\n      swap1\n      log3\n        /* \"Purgatory_flattened.sol\":17427:18534  function _update(address from, address to, uint256 value) internal virtual {... */\n      pop\n      pop\n      pop\n      jump\t// out\n        /* \"#utility.yul\":14:562   */\n    tag_24:\n        /* \"#utility.yul\":126:130   */\n      0x00\n        /* \"#utility.yul\":155:157   */\n      0x20\n        /* \"#utility.yul\":184:186   */\n      dup1\n        /* \"#utility.yul\":173:182   */\n      dup4\n        /* \"#utility.yul\":166:187   */\n      mstore\n        /* \"#utility.yul\":216:222   */\n      dup4\n        /* \"#utility.yul\":210:223   */\n      mload\n        /* \"#utility.yul\":259:265   */\n      dup1\n        /* \"#utility.yul\":254:256   */\n      0x20\n        /* \"#utility.yul\":243:252   */\n      dup6\n        /* \"#utility.yul\":239:257   */\n      add\n        /* \"#utility.yul\":232:266   */\n      mstore\n        /* \"#utility.yul\":284:285   */\n      0x00\n        /* \"#utility.yul\":294:434   */\n    tag_190:\n        /* \"#utility.yul\":308:314   */\n      dup2\n        /* \"#utility.yul\":305:306   */\n      dup2\n        /* \"#utility.yul\":302:315   */\n      lt\n        /* \"#utility.yul\":294:434   */\n      iszero\n      tag_192\n      jumpi\n        /* \"#utility.yul\":403:417   */\n      dup6\n      dup2\n      add\n        /* \"#utility.yul\":399:422   */\n      dup4\n      add\n        /* \"#utility.yul\":393:423   */\n      mload\n        /* \"#utility.yul\":369:386   */\n      dup6\n      dup3\n      add\n        /* \"#utility.yul\":388:390   */\n      0x40\n        /* \"#utility.yul\":365:391   */\n      add\n        /* \"#utility.yul\":358:424   */\n      mstore\n        /* \"#utility.yul\":323:333   */\n      dup3\n      add\n        /* \"#utility.yul\":294:434   */\n      jump(tag_190)\n    tag_192:\n        /* \"#utility.yul\":298:301   */\n      pop\n        /* \"#utility.yul\":483:484   */\n      0x00\n        /* \"#utility.yul\":478:480   */\n      0x40\n        /* \"#utility.yul\":469:475   */\n      dup3\n        /* \"#utility.yul\":458:467   */\n      dup7\n        /* \"#utility.yul\":454:476   */\n      add\n        /* \"#utility.yul\":450:481   */\n      add\n        /* \"#utility.yul\":443:485   */\n      mstore\n        /* \"#utility.yul\":553:555   */\n      0x40\n        /* \"#utility.yul\":546:548   */\n      0x1f\n        /* \"#utility.yul\":542:549   */\n      not\n        /* \"#utility.yul\":537:539   */\n      0x1f\n        /* \"#utility.yul\":529:535   */\n      dup4\n        /* \"#utility.yul\":525:540   */\n      add\n        /* \"#utility.yul\":521:550   */\n      and\n        /* \"#utility.yul\":510:519   */\n      dup6\n        /* \"#utility.yul\":506:551   */\n      add\n        /* \"#utility.yul\":502:556   */\n      add\n        /* \"#utility.yul\":494:556   */\n      swap3\n      pop\n      pop\n      pop\n        /* \"#utility.yul\":14:562   */\n      swap3\n      swap2\n      pop\n      pop\n      jump\t// out\n        /* \"#utility.yul\":567:740   */\n    tag_187:\n        /* \"#utility.yul\":635:655   */\n      dup1\n      calldataload\n      sub(shl(0xa0, 0x01), 0x01)\n        /* \"#utility.yul\":684:715   */\n      dup2\n      and\n        /* \"#utility.yul\":674:716   */\n      dup2\n      eq\n        /* \"#utility.yul\":664:734   */\n      tag_194\n      jumpi\n        /* \"#utility.yul\":730:731   */\n      0x00\n        /* \"#utility.yul\":727:728   */\n      dup1\n        /* \"#utility.yul\":720:732   */\n      revert\n        /* \"#utility.yul\":664:734   */\n    tag_194:\n        /* \"#utility.yul\":567:740   */\n      swap2\n      swap1\n      pop\n      jump\t// out\n        /* \"#utility.yul\":745:999   */\n    tag_27:\n        /* \"#utility.yul\":813:819   */\n      0x00\n        /* \"#utility.yul\":821:827   */\n      dup1\n        /* \"#utility.yul\":874:876   */\n      0x40\n        /* \"#utility.yul\":862:871   */\n      dup4\n        /* \"#utility.yul\":853:860   */\n      dup6\n        /* \"#utility.yul\":849:872   */\n      sub\n        /* \"#utility.yul\":845:877   */\n      slt\n        /* \"#utility.yul\":842:894   */\n      iszero\n      tag_196\n      jumpi\n        /* \"#utility.yul\":890:891   */\n      0x00\n        /* \"#utility.yul\":887:888   */\n      dup1\n        /* \"#utility.yul\":880:892   */\n      revert\n        /* \"#utility.yul\":842:894   */\n    tag_196:\n        /* \"#utility.yul\":913:942   */\n      tag_197\n        /* \"#utility.yul\":932:941   */\n      dup4\n        /* \"#utility.yul\":913:942   */\n      tag_187\n      jump\t// in\n    tag_197:\n        /* \"#utility.yul\":903:942   */\n      swap5\n        /* \"#utility.yul\":989:991   */\n      0x20\n        /* \"#utility.yul\":974:992   */\n      swap4\n      swap1\n      swap4\n      add\n        /* \"#utility.yul\":961:993   */\n      calldataload\n      swap4\n      pop\n      pop\n      pop\n        /* \"#utility.yul\":745:999   */\n      jump\t// out\n        /* \"#utility.yul\":1378:1706   */\n    tag_37:\n        /* \"#utility.yul\":1455:1461   */\n      0x00\n        /* \"#utility.yul\":1463:1469   */\n      dup1\n        /* \"#utility.yul\":1471:1477   */\n      0x00\n        /* \"#utility.yul\":1524:1526   */\n      0x60\n        /* \"#utility.yul\":1512:1521   */\n      dup5\n        /* \"#utility.yul\":1503:1510   */\n      dup7\n        /* \"#utility.yul\":1499:1522   */\n      sub\n        /* \"#utility.yul\":1495:1527   */\n      slt\n        /* \"#utility.yul\":1492:1544   */\n      iszero\n      tag_201\n      jumpi\n        /* \"#utility.yul\":1540:1541   */\n      0x00\n        /* \"#utility.yul\":1537:1538   */\n      dup1\n        /* \"#utility.yul\":1530:1542   */\n      revert\n        /* \"#utility.yul\":1492:1544   */\n    tag_201:\n        /* \"#utility.yul\":1563:1592   */\n      tag_202\n        /* \"#utility.yul\":1582:1591   */\n      dup5\n        /* \"#utility.yul\":1563:1592   */\n      tag_187\n      jump\t// in\n    tag_202:\n        /* \"#utility.yul\":1553:1592   */\n      swap3\n      pop\n        /* \"#utility.yul\":1611:1649   */\n      tag_203\n        /* \"#utility.yul\":1645:1647   */\n      0x20\n        /* \"#utility.yul\":1634:1643   */\n      dup6\n        /* \"#utility.yul\":1630:1648   */\n      add\n        /* \"#utility.yul\":1611:1649   */\n      tag_187\n      jump\t// in\n    tag_203:\n        /* \"#utility.yul\":1601:1649   */\n      swap2\n      pop\n        /* \"#utility.yul\":1696:1698   */\n      0x40\n        /* \"#utility.yul\":1685:1694   */\n      dup5\n        /* \"#utility.yul\":1681:1699   */\n      add\n        /* \"#utility.yul\":1668:1700   */\n      calldataload\n        /* \"#utility.yul\":1658:1700   */\n      swap1\n      pop\n        /* \"#utility.yul\":1378:1706   */\n      swap3\n      pop\n      swap3\n      pop\n      swap3\n      jump\t// out\n        /* \"#utility.yul\":1900:2080   */\n    tag_52:\n        /* \"#utility.yul\":1959:1965   */\n      0x00\n        /* \"#utility.yul\":2012:2014   */\n      0x20\n        /* \"#utility.yul\":2000:2009   */\n      dup3\n        /* \"#utility.yul\":1991:1998   */\n      dup5\n        /* \"#utility.yul\":1987:2010   */\n      sub\n        /* \"#utility.yul\":1983:2015   */\n      slt\n        /* \"#utility.yul\":1980:2032   */\n      iszero\n      tag_206\n      jumpi\n        /* \"#utility.yul\":2028:2029   */\n      0x00\n        /* \"#utility.yul\":2025:2026   */\n      dup1\n        /* \"#utility.yul\":2018:2030   */\n      revert\n        /* \"#utility.yul\":1980:2032   */\n    tag_206:\n      pop\n        /* \"#utility.yul\":2051:2074   */\n      calldataload\n      swap2\n        /* \"#utility.yul\":1900:2080   */\n      swap1\n      pop\n      jump\t// out\n        /* \"#utility.yul\":2085:2271   */\n    tag_56:\n        /* \"#utility.yul\":2144:2150   */\n      0x00\n        /* \"#utility.yul\":2197:2199   */\n      0x20\n        /* \"#utility.yul\":2185:2194   */\n      dup3\n        /* \"#utility.yul\":2176:2183   */\n      dup5\n        /* \"#utility.yul\":2172:2195   */\n      sub\n        /* \"#utility.yul\":2168:2200   */\n      slt\n        /* \"#utility.yul\":2165:2217   */\n      iszero\n      tag_208\n      jumpi\n        /* \"#utility.yul\":2213:2214   */\n      0x00\n        /* \"#utility.yul\":2210:2211   */\n      dup1\n        /* \"#utility.yul\":2203:2215   */\n      revert\n        /* \"#utility.yul\":2165:2217   */\n    tag_208:\n        /* \"#utility.yul\":2236:2265   */\n      tag_209\n        /* \"#utility.yul\":2255:2264   */\n      dup3\n        /* \"#utility.yul\":2236:2265   */\n      tag_187\n      jump\t// in\n    tag_209:\n        /* \"#utility.yul\":2226:2265   */\n      swap4\n        /* \"#utility.yul\":2085:2271   */\n      swap3\n      pop\n      pop\n      pop\n      jump\t// out\n        /* \"#utility.yul\":2484:2744   */\n    tag_74:\n        /* \"#utility.yul\":2552:2558   */\n      0x00\n        /* \"#utility.yul\":2560:2566   */\n      dup1\n        /* \"#utility.yul\":2613:2615   */\n      0x40\n        /* \"#utility.yul\":2601:2610   */\n      dup4\n        /* \"#utility.yul\":2592:2599   */\n      dup6\n        /* \"#utility.yul\":2588:2611   */\n      sub\n        /* \"#utility.yul\":2584:2616   */\n      slt\n        /* \"#utility.yul\":2581:2633   */\n      iszero\n      tag_212\n      jumpi\n        /* \"#utility.yul\":2629:2630   */\n      0x00\n        /* \"#utility.yul\":2626:2627   */\n      dup1\n        /* \"#utility.yul\":2619:2631   */\n      revert\n        /* \"#utility.yul\":2581:2633   */\n    tag_212:\n        /* \"#utility.yul\":2652:2681   */\n      tag_213\n        /* \"#utility.yul\":2671:2680   */\n      dup4\n        /* \"#utility.yul\":2652:2681   */\n      tag_187\n      jump\t// in\n    tag_213:\n        /* \"#utility.yul\":2642:2681   */\n      swap2\n      pop\n        /* \"#utility.yul\":2700:2738   */\n      tag_214\n        /* \"#utility.yul\":2734:2736   */\n      0x20\n        /* \"#utility.yul\":2723:2732   */\n      dup5\n        /* \"#utility.yul\":2719:2737   */\n      add\n        /* \"#utility.yul\":2700:2738   */\n      tag_187\n      jump\t// in\n    tag_214:\n        /* \"#utility.yul\":2690:2738   */\n      swap1\n      pop\n        /* \"#utility.yul\":2484:2744   */\n      swap3\n      pop\n      swap3\n      swap1\n      pop\n      jump\t// out\n        /* \"#utility.yul\":2749:3129   */\n    tag_82:\n        /* \"#utility.yul\":2828:2829   */\n      0x01\n        /* \"#utility.yul\":2824:2836   */\n      dup2\n      dup2\n      shr\n      swap1\n        /* \"#utility.yul\":2871:2883   */\n      dup3\n      and\n      dup1\n        /* \"#utility.yul\":2892:2953   */\n      tag_216\n      jumpi\n        /* \"#utility.yul\":2946:2950   */\n      0x7f\n        /* \"#utility.yul\":2938:2944   */\n      dup3\n        /* \"#utility.yul\":2934:2951   */\n      and\n        /* \"#utility.yul\":2924:2951   */\n      swap2\n      pop\n        /* \"#utility.yul\":2892:2953   */\n    tag_216:\n        /* \"#utility.yul\":2999:3001   */\n      0x20\n        /* \"#utility.yul\":2991:2997   */\n      dup3\n        /* \"#utility.yul\":2988:3002   */\n      lt\n        /* \"#utility.yul\":2968:2986   */\n      dup2\n        /* \"#utility.yul\":2965:3003   */\n      sub\n        /* \"#utility.yul\":2962:3123   */\n      tag_217\n      jumpi\n        /* \"#utility.yul\":3045:3055   */\n      0x4e487b71\n        /* \"#utility.yul\":3040:3043   */\n      0xe0\n        /* \"#utility.yul\":3036:3056   */\n      shl\n        /* \"#utility.yul\":3033:3034   */\n      0x00\n        /* \"#utility.yul\":3026:3057   */\n      mstore\n        /* \"#utility.yul\":3080:3084   */\n      0x22\n        /* \"#utility.yul\":3077:3078   */\n      0x04\n        /* \"#utility.yul\":3070:3085   */\n      mstore\n        /* \"#utility.yul\":3108:3112   */\n      0x24\n        /* \"#utility.yul\":3105:3106   */\n      0x00\n        /* \"#utility.yul\":3098:3113   */\n      revert\n        /* \"#utility.yul\":2962:3123   */\n    tag_217:\n      pop\n        /* \"#utility.yul\":2749:3129   */\n      swap2\n      swap1\n      pop\n      jump\t// out\n        /* \"#utility.yul\":3134:3356   */\n    tag_106:\n        /* \"#utility.yul\":3199:3208   */\n      dup1\n      dup3\n      add\n        /* \"#utility.yul\":3220:3230   */\n      dup1\n      dup3\n      gt\n        /* \"#utility.yul\":3217:3350   */\n      iszero\n      tag_87\n      jumpi\n        /* \"#utility.yul\":3272:3282   */\n      0x4e487b71\n        /* \"#utility.yul\":3267:3270   */\n      0xe0\n        /* \"#utility.yul\":3263:3283   */\n      shl\n        /* \"#utility.yul\":3260:3261   */\n      0x00\n        /* \"#utility.yul\":3253:3284   */\n      mstore\n        /* \"#utility.yul\":3307:3311   */\n      0x11\n        /* \"#utility.yul\":3304:3305   */\n      0x04\n        /* \"#utility.yul\":3297:3312   */\n      mstore\n        /* \"#utility.yul\":3335:3339   */\n      0x24\n        /* \"#utility.yul\":3332:3333   */\n      0x00\n        /* \"#utility.yul\":3325:3340   */\n      revert\n\n    auxdata: 0xa26469706673582212207a54b8ee5a6447dbb1c75d9f4a39d1fdebd7c9c961eb3d885f5ce6ff11bf090964736f6c63430008180033\n}\n",
				"bytecode": {
					"linkReferences": {},
					"object": "608060405234801562000010575f80fd5b5033604051806040016040528060098152602001685075726761746f727960b81b815250604051806040016040528060048152602001635055524760e01b815250816003908162000062919062000326565b50600462000071828262000326565b5050506001600160a01b038116620000a357604051631e4fbdf760e01b81525f60048201526024015b60405180910390fd5b620000ae81620000cc565b50620000c6336a084595161401484a0000006200011d565b62000418565b600580546001600160a01b038381166001600160a01b0319831681179093556040519116919082907f8be0079c531659141344cd1fd0a4f28419497f9722a3daafe3b4186f6b6457e0905f90a35050565b6001600160a01b038216620001485760405163ec442f0560e01b81525f60048201526024016200009a565b620001555f838362000159565b5050565b6001600160a01b03831662000187578060025f8282546200017b9190620003f2565b90915550620001f99050565b6001600160a01b0383165f9081526020819052604090205481811015620001db5760405163391434e360e21b81526001600160a01b038516600482015260248101829052604481018390526064016200009a565b6001600160a01b0384165f9081526020819052604090209082900390555b6001600160a01b038216620002175760028054829003905562000235565b6001600160a01b0382165f9081526020819052604090208054820190555b816001600160a01b0316836001600160a01b03167fddf252ad1be2c89b69c2b068fc378daa952ba7f163c4a11628f55a4df523b3ef836040516200027b91815260200190565b60405180910390a3505050565b634e487b7160e01b5f52604160045260245ffd5b600181811c90821680620002b157607f821691505b602082108103620002d057634e487b7160e01b5f52602260045260245ffd5b50919050565b601f8211156200032157805f5260205f20601f840160051c81016020851015620002fd5750805b601f840160051c820191505b818110156200031e575f815560010162000309565b50505b505050565b81516001600160401b0381111562000342576200034262000288565b6200035a816200035384546200029c565b84620002d6565b602080601f83116001811462000390575f8415620003785750858301515b5f19600386901b1c1916600185901b178555620003ea565b5f85815260208120601f198616915b82811015620003c0578886015182559484019460019091019084016200039f565b5085821015620003de57878501515f19600388901b60f8161c191681555b505060018460011b0185555b505050505050565b808201808211156200041257634e487b7160e01b5f52601160045260245ffd5b92915050565b6109a480620004265f395ff3fe608060405234801561000f575f80fd5b50600436106100f0575f3560e01c806342966c681161009357806395d89b411161006357806395d89b41146101ee578063a9059cbb146101f6578063dd62ed3e14610209578063f2fde38b14610241575f80fd5b806342966c681461019057806370a08231146101a3578063715018a6146101cb5780638da5cb5b146101d3575f80fd5b806323b872dd116100ce57806323b872dd14610147578063313ce5671461015a57806332cb6b0c1461016957806340c10f191461017b575f80fd5b806306fdde03146100f4578063095ea7b31461011257806318160ddd14610135575b5f80fd5b6100fc610254565b60405161010991906107e7565b60405180910390f35b61012561012036600461084e565b6102e4565b6040519015158152602001610109565b6002545b604051908152602001610109565b610125610155366004610876565b6102fd565b60405160128152602001610109565b6101396a084595161401484a00000081565b61018e61018936600461084e565b610320565b005b61018e61019e3660046108af565b6103a9565b6101396101b13660046108c6565b6001600160a01b03165f9081526020819052604090205490565b61018e6103b6565b6005546040516001600160a01b039091168152602001610109565b6100fc6103c9565b61012561020436600461084e565b6103d8565b6101396102173660046108e6565b6001600160a01b039182165f90815260016020908152604080832093909416825291909152205490565b61018e61024f3660046108c6565b6103e5565b60606003805461026390610917565b80601f016020809104026020016040519081016040528092919081815260200182805461028f90610917565b80156102da5780601f106102b1576101008083540402835291602001916102da565b820191905f5260205f20905b8154815290600101906020018083116102bd57829003601f168201915b5050505050905090565b5f336102f181858561041f565b60019150505b92915050565b5f3361030a858285610431565b6103158585856104ac565b506001949350505050565b610328610509565b6a084595161401484a0000008161033e60025490565b610348919061094f565b111561039b5760405162461bcd60e51b815260206004820152601860248201527f546f706c616d2061727a206c696d697469206173696c6469000000000000000060448201526064015b60405180910390fd5b6103a58282610536565b5050565b6103b3338261056a565b50565b6103be610509565b6103c75f61059e565b565b60606004805461026390610917565b5f336102f18185856104ac565b6103ed610509565b6001600160a01b03811661041657604051631e4fbdf760e01b81525f6004820152602401610392565b6103b38161059e565b61042c83838360016105ef565b505050565b6001600160a01b038381165f908152600160209081526040808320938616835292905220545f1981146104a6578181101561049857604051637dc7a0d960e11b81526001600160a01b03841660048201526024810182905260448101839052606401610392565b6104a684848484035f6105ef565b50505050565b6001600160a01b0383166104d557604051634b637e8f60e11b81525f6004820152602401610392565b6001600160a01b0382166104fe5760405163ec442f0560e01b81525f6004820152602401610392565b61042c8383836106c1565b6005546001600160a01b031633146103c75760405163118cdaa760e01b8152336004820152602401610392565b6001600160a01b03821661055f5760405163ec442f0560e01b81525f6004820152602401610392565b6103a55f83836106c1565b6001600160a01b03821661059357604051634b637e8f60e11b81525f6004820152602401610392565b6103a5825f836106c1565b600580546001600160a01b038381166001600160a01b0319831681179093556040519116919082907f8be0079c531659141344cd1fd0a4f28419497f9722a3daafe3b4186f6b6457e0905f90a35050565b6001600160a01b0384166106185760405163e602df0560e01b81525f6004820152602401610392565b6001600160a01b03831661064157604051634a1406b160e11b81525f6004820152602401610392565b6001600160a01b038085165f90815260016020908152604080832093871683529290522082905580156104a657826001600160a01b0316846001600160a01b03167f8c5be1e5ebec7d5bd14f71427d1e84f3dd0314c0f7b2291e5b200ac8c7c3b925846040516106b391815260200190565b60405180910390a350505050565b6001600160a01b0383166106eb578060025f8282546106e0919061094f565b9091555061075b9050565b6001600160a01b0383165f908152602081905260409020548181101561073d5760405163391434e360e21b81526001600160a01b03851660048201526024810182905260448101839052606401610392565b6001600160a01b0384165f9081526020819052604090209082900390555b6001600160a01b03821661077757600280548290039055610795565b6001600160a01b0382165f9081526020819052604090208054820190555b816001600160a01b0316836001600160a01b03167fddf252ad1be2c89b69c2b068fc378daa952ba7f163c4a11628f55a4df523b3ef836040516107da91815260200190565b60405180910390a3505050565b5f602080835283518060208501525f5b81811015610813578581018301518582016040015282016107f7565b505f604082860101526040601f19601f8301168501019250505092915050565b80356001600160a01b0381168114610849575f80fd5b919050565b5f806040838503121561085f575f80fd5b61086883610833565b946020939093013593505050565b5f805f60608486031215610888575f80fd5b61089184610833565b925061089f60208501610833565b9150604084013590509250925092565b5f602082840312156108bf575f80fd5b5035919050565b5f602082840312156108d6575f80fd5b6108df82610833565b9392505050565b5f80604083850312156108f7575f80fd5b61090083610833565b915061090e60208401610833565b90509250929050565b600181811c9082168061092b57607f821691505b60208210810361094957634e487b7160e01b5f52602260045260245ffd5b50919050565b808201808211156102f757634e487b7160e01b5f52601160045260245ffdfea26469706673582212207a54b8ee5a6447dbb1c75d9f4a39d1fdebd7c9c961eb3d885f5ce6ff11bf090964736f6c63430008180033",
					"opcodes": "PUSH1 0x80 PUSH1 0x40 MSTORE CALLVALUE DUP1 ISZERO PUSH3 0x10 JUMPI PUSH0 DUP1 REVERT JUMPDEST POP CALLER PUSH1 0x40 MLOAD DUP1 PUSH1 0x40 ADD PUSH1 0x40 MSTORE DUP1 PUSH1 0x9 DUP2 MSTORE PUSH1 0x20 ADD PUSH9 0x5075726761746F7279 PUSH1 0xB8 SHL DUP2 MSTORE POP PUSH1 0x40 MLOAD DUP1 PUSH1 0x40 ADD PUSH1 0x40 MSTORE DUP1 PUSH1 0x4 DUP2 MSTORE PUSH1 0x20 ADD PUSH4 0x50555247 PUSH1 0xE0 SHL DUP2 MSTORE POP DUP2 PUSH1 0x3 SWAP1 DUP2 PUSH3 0x62 SWAP2 SWAP1 PUSH3 0x326 JUMP JUMPDEST POP PUSH1 0x4 PUSH3 0x71 DUP3 DUP3 PUSH3 0x326 JUMP JUMPDEST POP POP POP PUSH1 0x1 PUSH1 0x1 PUSH1 0xA0 SHL SUB DUP2 AND PUSH3 0xA3 JUMPI PUSH1 0x40 MLOAD PUSH4 0x1E4FBDF7 PUSH1 0xE0 SHL DUP2 MSTORE PUSH0 PUSH1 0x4 DUP3 ADD MSTORE PUSH1 0x24 ADD JUMPDEST PUSH1 0x40 MLOAD DUP1 SWAP2 SUB SWAP1 REVERT JUMPDEST PUSH3 0xAE DUP2 PUSH3 0xCC JUMP JUMPDEST POP PUSH3 0xC6 CALLER PUSH11 0x84595161401484A000000 PUSH3 0x11D JUMP JUMPDEST PUSH3 0x418 JUMP JUMPDEST PUSH1 0x5 DUP1 SLOAD PUSH1 0x1 PUSH1 0x1 PUSH1 0xA0 SHL SUB DUP4 DUP2 AND PUSH1 0x1 PUSH1 0x1 PUSH1 0xA0 SHL SUB NOT DUP4 AND DUP2 OR SWAP1 SWAP4 SSTORE PUSH1 0x40 MLOAD SWAP2 AND SWAP2 SWAP1 DUP3 SWAP1 PUSH32 0x8BE0079C531659141344CD1FD0A4F28419497F9722A3DAAFE3B4186F6B6457E0 SWAP1 PUSH0 SWAP1 LOG3 POP POP JUMP JUMPDEST PUSH1 0x1 PUSH1 0x1 PUSH1 0xA0 SHL SUB DUP3 AND PUSH3 0x148 JUMPI PUSH1 0x40 MLOAD PUSH4 0xEC442F05 PUSH1 0xE0 SHL DUP2 MSTORE PUSH0 PUSH1 0x4 DUP3 ADD MSTORE PUSH1 0x24 ADD PUSH3 0x9A JUMP JUMPDEST PUSH3 0x155 PUSH0 DUP4 DUP4 PUSH3 0x159 JUMP JUMPDEST POP POP JUMP JUMPDEST PUSH1 0x1 PUSH1 0x1 PUSH1 0xA0 SHL SUB DUP4 AND PUSH3 0x187 JUMPI DUP1 PUSH1 0x2 PUSH0 DUP3 DUP3 SLOAD PUSH3 0x17B SWAP2 SWAP1 PUSH3 0x3F2 JUMP JUMPDEST SWAP1 SWAP2 SSTORE POP PUSH3 0x1F9 SWAP1 POP JUMP JUMPDEST PUSH1 0x1 PUSH1 0x1 PUSH1 0xA0 SHL SUB DUP4 AND PUSH0 SWAP1 DUP2 MSTORE PUSH1 0x20 DUP2 SWAP1 MSTORE PUSH1 0x40 SWAP1 KECCAK256 SLOAD DUP2 DUP2 LT ISZERO PUSH3 0x1DB JUMPI PUSH1 0x40 MLOAD PUSH4 0x391434E3 PUSH1 0xE2 SHL DUP2 MSTORE PUSH1 0x1 PUSH1 0x1 PUSH1 0xA0 SHL SUB DUP6 AND PUSH1 0x4 DUP3 ADD MSTORE PUSH1 0x24 DUP2 ADD DUP3 SWAP1 MSTORE PUSH1 0x44 DUP2 ADD DUP4 SWAP1 MSTORE PUSH1 0x64 ADD PUSH3 0x9A JUMP JUMPDEST PUSH1 0x1 PUSH1 0x1 PUSH1 0xA0 SHL SUB DUP5 AND PUSH0 SWAP1 DUP2 MSTORE PUSH1 0x20 DUP2 SWAP1 MSTORE PUSH1 0x40 SWAP1 KECCAK256 SWAP1 DUP3 SWAP1 SUB SWAP1 SSTORE JUMPDEST PUSH1 0x1 PUSH1 0x1 PUSH1 0xA0 SHL SUB DUP3 AND PUSH3 0x217 JUMPI PUSH1 0x2 DUP1 SLOAD DUP3 SWAP1 SUB SWAP1 SSTORE PUSH3 0x235 JUMP JUMPDEST PUSH1 0x1 PUSH1 0x1 PUSH1 0xA0 SHL SUB DUP3 AND PUSH0 SWAP1 DUP2 MSTORE PUSH1 0x20 DUP2 SWAP1 MSTORE PUSH1 0x40 SWAP1 KECCAK256 DUP1 SLOAD DUP3 ADD SWAP1 SSTORE JUMPDEST DUP2 PUSH1 0x1 PUSH1 0x1 PUSH1 0xA0 SHL SUB AND DUP4 PUSH1 0x1 PUSH1 0x1 PUSH1 0xA0 SHL SUB AND PUSH32 0xDDF252AD1BE2C89B69C2B068FC378DAA952BA7F163C4A11628F55A4DF523B3EF DUP4 PUSH1 0x40 MLOAD PUSH3 0x27B SWAP2 DUP2 MSTORE PUSH1 0x20 ADD SWAP1 JUMP JUMPDEST PUSH1 0x40 MLOAD DUP1 SWAP2 SUB SWAP1 LOG3 POP POP POP JUMP JUMPDEST PUSH4 0x4E487B71 PUSH1 0xE0 SHL PUSH0 MSTORE PUSH1 0x41 PUSH1 0x4 MSTORE PUSH1 0x24 PUSH0 REVERT JUMPDEST PUSH1 0x1 DUP2 DUP2 SHR SWAP1 DUP3 AND DUP1 PUSH3 0x2B1 JUMPI PUSH1 0x7F DUP3 AND SWAP2 POP JUMPDEST PUSH1 0x20 DUP3 LT DUP2 SUB PUSH3 0x2D0 JUMPI PUSH4 0x4E487B71 PUSH1 0xE0 SHL PUSH0 MSTORE PUSH1 0x22 PUSH1 0x4 MSTORE PUSH1 0x24 PUSH0 REVERT JUMPDEST POP SWAP2 SWAP1 POP JUMP JUMPDEST PUSH1 0x1F DUP3 GT ISZERO PUSH3 0x321 JUMPI DUP1 PUSH0 MSTORE PUSH1 0x20 PUSH0 KECCAK256 PUSH1 0x1F DUP5 ADD PUSH1 0x5 SHR DUP2 ADD PUSH1 0x20 DUP6 LT ISZERO PUSH3 0x2FD JUMPI POP DUP1 JUMPDEST PUSH1 0x1F DUP5 ADD PUSH1 0x5 SHR DUP3 ADD SWAP2 POP JUMPDEST DUP2 DUP2 LT ISZERO PUSH3 0x31E JUMPI PUSH0 DUP2 SSTORE PUSH1 0x1 ADD PUSH3 0x309 JUMP JUMPDEST POP POP JUMPDEST POP POP POP JUMP JUMPDEST DUP2 MLOAD PUSH1 0x1 PUSH1 0x1 PUSH1 0x40 SHL SUB DUP2 GT ISZERO PUSH3 0x342 JUMPI PUSH3 0x342 PUSH3 0x288 JUMP JUMPDEST PUSH3 0x35A DUP2 PUSH3 0x353 DUP5 SLOAD PUSH3 0x29C JUMP JUMPDEST DUP5 PUSH3 0x2D6 JUMP JUMPDEST PUSH1 0x20 DUP1 PUSH1 0x1F DUP4 GT PUSH1 0x1 DUP2 EQ PUSH3 0x390 JUMPI PUSH0 DUP5 ISZERO PUSH3 0x378 JUMPI POP DUP6 DUP4 ADD MLOAD JUMPDEST PUSH0 NOT PUSH1 0x3 DUP7 SWAP1 SHL SHR NOT AND PUSH1 0x1 DUP6 SWAP1 SHL OR DUP6 SSTORE PUSH3 0x3EA JUMP JUMPDEST PUSH0 DUP6 DUP2 MSTORE PUSH1 0x20 DUP2 KECCAK256 PUSH1 0x1F NOT DUP7 AND SWAP2 JUMPDEST DUP3 DUP2 LT ISZERO PUSH3 0x3C0 JUMPI DUP9 DUP7 ADD MLOAD DUP3 SSTORE SWAP5 DUP5 ADD SWAP5 PUSH1 0x1 SWAP1 SWAP2 ADD SWAP1 DUP5 ADD PUSH3 0x39F JUMP JUMPDEST POP DUP6 DUP3 LT ISZERO PUSH3 0x3DE JUMPI DUP8 DUP6 ADD MLOAD PUSH0 NOT PUSH1 0x3 DUP9 SWAP1 SHL PUSH1 0xF8 AND SHR NOT AND DUP2 SSTORE JUMPDEST POP POP PUSH1 0x1 DUP5 PUSH1 0x1 SHL ADD DUP6 SSTORE JUMPDEST POP POP POP POP POP POP JUMP JUMPDEST DUP1 DUP3 ADD DUP1 DUP3 GT ISZERO PUSH3 0x412 JUMPI PUSH4 0x4E487B71 PUSH1 0xE0 SHL PUSH0 MSTORE PUSH1 0x11 PUSH1 0x4 MSTORE PUSH1 0x24 PUSH0 REVERT JUMPDEST SWAP3 SWAP2 POP POP JUMP JUMPDEST PUSH2 0x9A4 DUP1 PUSH3 0x426 PUSH0 CODECOPY PUSH0 RETURN INVALID PUSH1 0x80 PUSH1 0x40 MSTORE CALLVALUE DUP1 ISZERO PUSH2 0xF JUMPI PUSH0 DUP1 REVERT JUMPDEST POP PUSH1 0x4 CALLDATASIZE LT PUSH2 0xF0 JUMPI PUSH0 CALLDATALOAD PUSH1 0xE0 SHR DUP1 PUSH4 0x42966C68 GT PUSH2 0x93 JUMPI DUP1 PUSH4 0x95D89B41 GT PUSH2 0x63 JUMPI DUP1 PUSH4 0x95D89B41 EQ PUSH2 0x1EE JUMPI DUP1 PUSH4 0xA9059CBB EQ PUSH2 0x1F6 JUMPI DUP1 PUSH4 0xDD62ED3E EQ PUSH2 0x209 JUMPI DUP1 PUSH4 0xF2FDE38B EQ PUSH2 0x241 JUMPI PUSH0 DUP1 REVERT JUMPDEST DUP1 PUSH4 0x42966C68 EQ PUSH2 0x190 JUMPI DUP1 PUSH4 0x70A08231 EQ PUSH2 0x1A3 JUMPI DUP1 PUSH4 0x715018A6 EQ PUSH2 0x1CB JUMPI DUP1 PUSH4 0x8DA5CB5B EQ PUSH2 0x1D3 JUMPI PUSH0 DUP1 REVERT JUMPDEST DUP1 PUSH4 0x23B872DD GT PUSH2 0xCE JUMPI DUP1 PUSH4 0x23B872DD EQ PUSH2 0x147 JUMPI DUP1 PUSH4 0x313CE567 EQ PUSH2 0x15A JUMPI DUP1 PUSH4 0x32CB6B0C EQ PUSH2 0x169 JUMPI DUP1 PUSH4 0x40C10F19 EQ PUSH2 0x17B JUMPI PUSH0 DUP1 REVERT JUMPDEST DUP1 PUSH4 0x6FDDE03 EQ PUSH2 0xF4 JUMPI DUP1 PUSH4 0x95EA7B3 EQ PUSH2 0x112 JUMPI DUP1 PUSH4 0x18160DDD EQ PUSH2 0x135 JUMPI JUMPDEST PUSH0 DUP1 REVERT JUMPDEST PUSH2 0xFC PUSH2 0x254 JUMP JUMPDEST PUSH1 0x40 MLOAD PUSH2 0x109 SWAP2 SWAP1 PUSH2 0x7E7 JUMP JUMPDEST PUSH1 0x40 MLOAD DUP1 SWAP2 SUB SWAP1 RETURN JUMPDEST PUSH2 0x125 PUSH2 0x120 CALLDATASIZE PUSH1 0x4 PUSH2 0x84E JUMP JUMPDEST PUSH2 0x2E4 JUMP JUMPDEST PUSH1 0x40 MLOAD SWAP1 ISZERO ISZERO DUP2 MSTORE PUSH1 0x20 ADD PUSH2 0x109 JUMP JUMPDEST PUSH1 0x2 SLOAD JUMPDEST PUSH1 0x40 MLOAD SWAP1 DUP2 MSTORE PUSH1 0x20 ADD PUSH2 0x109 JUMP JUMPDEST PUSH2 0x125 PUSH2 0x155 CALLDATASIZE PUSH1 0x4 PUSH2 0x876 JUMP JUMPDEST PUSH2 0x2FD JUMP JUMPDEST PUSH1 0x40 MLOAD PUSH1 0x12 DUP2 MSTORE PUSH1 0x20 ADD PUSH2 0x109 JUMP JUMPDEST PUSH2 0x139 PUSH11 0x84595161401484A000000 DUP2 JUMP JUMPDEST PUSH2 0x18E PUSH2 0x189 CALLDATASIZE PUSH1 0x4 PUSH2 0x84E JUMP JUMPDEST PUSH2 0x320 JUMP JUMPDEST STOP JUMPDEST PUSH2 0x18E PUSH2 0x19E CALLDATASIZE PUSH1 0x4 PUSH2 0x8AF JUMP JUMPDEST PUSH2 0x3A9 JUMP JUMPDEST PUSH2 0x139 PUSH2 0x1B1 CALLDATASIZE PUSH1 0x4 PUSH2 0x8C6 JUMP JUMPDEST PUSH1 0x1 PUSH1 0x1 PUSH1 0xA0 SHL SUB AND PUSH0 SWAP1 DUP2 MSTORE PUSH1 0x20 DUP2 SWAP1 MSTORE PUSH1 0x40 SWAP1 KECCAK256 SLOAD SWAP1 JUMP JUMPDEST PUSH2 0x18E PUSH2 0x3B6 JUMP JUMPDEST PUSH1 0x5 SLOAD PUSH1 0x40 MLOAD PUSH1 0x1 PUSH1 0x1 PUSH1 0xA0 SHL SUB SWAP1 SWAP2 AND DUP2 MSTORE PUSH1 0x20 ADD PUSH2 0x109 JUMP JUMPDEST PUSH2 0xFC PUSH2 0x3C9 JUMP JUMPDEST PUSH2 0x125 PUSH2 0x204 CALLDATASIZE PUSH1 0x4 PUSH2 0x84E JUMP JUMPDEST PUSH2 0x3D8 JUMP JUMPDEST PUSH2 0x139 PUSH2 0x217 CALLDATASIZE PUSH1 0x4 PUSH2 0x8E6 JUMP JUMPDEST PUSH1 0x1 PUSH1 0x1 PUSH1 0xA0 SHL SUB SWAP2 DUP3 AND PUSH0 SWAP1 DUP2 MSTORE PUSH1 0x1 PUSH1 0x20 SWAP1 DUP2 MSTORE PUSH1 0x40 DUP1 DUP4 KECCAK256 SWAP4 SWAP1 SWAP5 AND DUP3 MSTORE SWAP2 SWAP1 SWAP2 MSTORE KECCAK256 SLOAD SWAP1 JUMP JUMPDEST PUSH2 0x18E PUSH2 0x24F CALLDATASIZE PUSH1 0x4 PUSH2 0x8C6 JUMP JUMPDEST PUSH2 0x3E5 JUMP JUMPDEST PUSH1 0x60 PUSH1 0x3 DUP1 SLOAD PUSH2 0x263 SWAP1 PUSH2 0x917 JUMP JUMPDEST DUP1 PUSH1 0x1F ADD PUSH1 0x20 DUP1 SWAP2 DIV MUL PUSH1 0x20 ADD PUSH1 0x40 MLOAD SWAP1 DUP2 ADD PUSH1 0x40 MSTORE DUP1 SWAP3 SWAP2 SWAP1 DUP2 DUP2 MSTORE PUSH1 0x20 ADD DUP3 DUP1 SLOAD PUSH2 0x28F SWAP1 PUSH2 0x917 JUMP JUMPDEST DUP1 ISZERO PUSH2 0x2DA JUMPI DUP1 PUSH1 0x1F LT PUSH2 0x2B1 JUMPI PUSH2 0x100 DUP1 DUP4 SLOAD DIV MUL DUP4 MSTORE SWAP2 PUSH1 0x20 ADD SWAP2 PUSH2 0x2DA JUMP JUMPDEST DUP3 ADD SWAP2 SWAP1 PUSH0 MSTORE PUSH1 0x20 PUSH0 KECCAK256 SWAP1 JUMPDEST DUP2 SLOAD DUP2 MSTORE SWAP1 PUSH1 0x1 ADD SWAP1 PUSH1 0x20 ADD DUP1 DUP4 GT PUSH2 0x2BD JUMPI DUP3 SWAP1 SUB PUSH1 0x1F AND DUP3 ADD SWAP2 JUMPDEST POP POP POP POP POP SWAP1 POP SWAP1 JUMP JUMPDEST PUSH0 CALLER PUSH2 0x2F1 DUP2 DUP6 DUP6 PUSH2 0x41F JUMP JUMPDEST PUSH1 0x1 SWAP2 POP POP JUMPDEST SWAP3 SWAP2 POP POP JUMP JUMPDEST PUSH0 CALLER PUSH2 0x30A DUP6 DUP3 DUP6 PUSH2 0x431 JUMP JUMPDEST PUSH2 0x315 DUP6 DUP6 DUP6 PUSH2 0x4AC JUMP JUMPDEST POP PUSH1 0x1 SWAP5 SWAP4 POP POP POP POP JUMP JUMPDEST PUSH2 0x328 PUSH2 0x509 JUMP JUMPDEST PUSH11 0x84595161401484A000000 DUP2 PUSH2 0x33E PUSH1 0x2 SLOAD SWAP1 JUMP JUMPDEST PUSH2 0x348 SWAP2 SWAP1 PUSH2 0x94F JUMP JUMPDEST GT ISZERO PUSH2 0x39B JUMPI PUSH1 0x40 MLOAD PUSH3 0x461BCD PUSH1 0xE5 SHL DUP2 MSTORE PUSH1 0x20 PUSH1 0x4 DUP3 ADD MSTORE PUSH1 0x18 PUSH1 0x24 DUP3 ADD MSTORE PUSH32 0x546F706C616D2061727A206C696D697469206173696C64690000000000000000 PUSH1 0x44 DUP3 ADD MSTORE PUSH1 0x64 ADD JUMPDEST PUSH1 0x40 MLOAD DUP1 SWAP2 SUB SWAP1 REVERT JUMPDEST PUSH2 0x3A5 DUP3 DUP3 PUSH2 0x536 JUMP JUMPDEST POP POP JUMP JUMPDEST PUSH2 0x3B3 CALLER DUP3 PUSH2 0x56A JUMP JUMPDEST POP JUMP JUMPDEST PUSH2 0x3BE PUSH2 0x509 JUMP JUMPDEST PUSH2 0x3C7 PUSH0 PUSH2 0x59E JUMP JUMPDEST JUMP JUMPDEST PUSH1 0x60 PUSH1 0x4 DUP1 SLOAD PUSH2 0x263 SWAP1 PUSH2 0x917 JUMP JUMPDEST PUSH0 CALLER PUSH2 0x2F1 DUP2 DUP6 DUP6 PUSH2 0x4AC JUMP JUMPDEST PUSH2 0x3ED PUSH2 0x509 JUMP JUMPDEST PUSH1 0x1 PUSH1 0x1 PUSH1 0xA0 SHL SUB DUP2 AND PUSH2 0x416 JUMPI PUSH1 0x40 MLOAD PUSH4 0x1E4FBDF7 PUSH1 0xE0 SHL DUP2 MSTORE PUSH0 PUSH1 0x4 DUP3 ADD MSTORE PUSH1 0x24 ADD PUSH2 0x392 JUMP JUMPDEST PUSH2 0x3B3 DUP2 PUSH2 0x59E JUMP JUMPDEST PUSH2 0x42C DUP4 DUP4 DUP4 PUSH1 0x1 PUSH2 0x5EF JUMP JUMPDEST POP POP POP JUMP JUMPDEST PUSH1 0x1 PUSH1 0x1 PUSH1 0xA0 SHL SUB DUP4 DUP2 AND PUSH0 SWAP1 DUP2 MSTORE PUSH1 0x1 PUSH1 0x20 SWAP1 DUP2 MSTORE PUSH1 0x40 DUP1 DUP4 KECCAK256 SWAP4 DUP7 AND DUP4 MSTORE SWAP3 SWAP1 MSTORE KECCAK256 SLOAD PUSH0 NOT DUP2 EQ PUSH2 0x4A6 JUMPI DUP2 DUP2 LT ISZERO PUSH2 0x498 JUMPI PUSH1 0x40 MLOAD PUSH4 0x7DC7A0D9 PUSH1 0xE1 SHL DUP2 MSTORE PUSH1 0x1 PUSH1 0x1 PUSH1 0xA0 SHL SUB DUP5 AND PUSH1 0x4 DUP3 ADD MSTORE PUSH1 0x24 DUP2 ADD DUP3 SWAP1 MSTORE PUSH1 0x44 DUP2 ADD DUP4 SWAP1 MSTORE PUSH1 0x64 ADD PUSH2 0x392 JUMP JUMPDEST PUSH2 0x4A6 DUP5 DUP5 DUP5 DUP5 SUB PUSH0 PUSH2 0x5EF JUMP JUMPDEST POP POP POP POP JUMP JUMPDEST PUSH1 0x1 PUSH1 0x1 PUSH1 0xA0 SHL SUB DUP4 AND PUSH2 0x4D5 JUMPI PUSH1 0x40 MLOAD PUSH4 0x4B637E8F PUSH1 0xE1 SHL DUP2 MSTORE PUSH0 PUSH1 0x4 DUP3 ADD MSTORE PUSH1 0x24 ADD PUSH2 0x392 JUMP JUMPDEST PUSH1 0x1 PUSH1 0x1 PUSH1 0xA0 SHL SUB DUP3 AND PUSH2 0x4FE JUMPI PUSH1 0x40 MLOAD PUSH4 0xEC442F05 PUSH1 0xE0 SHL DUP2 MSTORE PUSH0 PUSH1 0x4 DUP3 ADD MSTORE PUSH1 0x24 ADD PUSH2 0x392 JUMP JUMPDEST PUSH2 0x42C DUP4 DUP4 DUP4 PUSH2 0x6C1 JUMP JUMPDEST PUSH1 0x5 SLOAD PUSH1 0x1 PUSH1 0x1 PUSH1 0xA0 SHL SUB AND CALLER EQ PUSH2 0x3C7 JUMPI PUSH1 0x40 MLOAD PUSH4 0x118CDAA7 PUSH1 0xE0 SHL DUP2 MSTORE CALLER PUSH1 0x4 DUP3 ADD MSTORE PUSH1 0x24 ADD PUSH2 0x392 JUMP JUMPDEST PUSH1 0x1 PUSH1 0x1 PUSH1 0xA0 SHL SUB DUP3 AND PUSH2 0x55F JUMPI PUSH1 0x40 MLOAD PUSH4 0xEC442F05 PUSH1 0xE0 SHL DUP2 MSTORE PUSH0 PUSH1 0x4 DUP3 ADD MSTORE PUSH1 0x24 ADD PUSH2 0x392 JUMP JUMPDEST PUSH2 0x3A5 PUSH0 DUP4 DUP4 PUSH2 0x6C1 JUMP JUMPDEST PUSH1 0x1 PUSH1 0x1 PUSH1 0xA0 SHL SUB DUP3 AND PUSH2 0x593 JUMPI PUSH1 0x40 MLOAD PUSH4 0x4B637E8F PUSH1 0xE1 SHL DUP2 MSTORE PUSH0 PUSH1 0x4 DUP3 ADD MSTORE PUSH1 0x24 ADD PUSH2 0x392 JUMP JUMPDEST PUSH2 0x3A5 DUP3 PUSH0 DUP4 PUSH2 0x6C1 JUMP JUMPDEST PUSH1 0x5 DUP1 SLOAD PUSH1 0x1 PUSH1 0x1 PUSH1 0xA0 SHL SUB DUP4 DUP2 AND PUSH1 0x1 PUSH1 0x1 PUSH1 0xA0 SHL SUB NOT DUP4 AND DUP2 OR SWAP1 SWAP4 SSTORE PUSH1 0x40 MLOAD SWAP2 AND SWAP2 SWAP1 DUP3 SWAP1 PUSH32 0x8BE0079C531659141344CD1FD0A4F28419497F9722A3DAAFE3B4186F6B6457E0 SWAP1 PUSH0 SWAP1 LOG3 POP POP JUMP JUMPDEST PUSH1 0x1 PUSH1 0x1 PUSH1 0xA0 SHL SUB DUP5 AND PUSH2 0x618 JUMPI PUSH1 0x40 MLOAD PUSH4 0xE602DF05 PUSH1 0xE0 SHL DUP2 MSTORE PUSH0 PUSH1 0x4 DUP3 ADD MSTORE PUSH1 0x24 ADD PUSH2 0x392 JUMP JUMPDEST PUSH1 0x1 PUSH1 0x1 PUSH1 0xA0 SHL SUB DUP4 AND PUSH2 0x641 JUMPI PUSH1 0x40 MLOAD PUSH4 0x4A1406B1 PUSH1 0xE1 SHL DUP2 MSTORE PUSH0 PUSH1 0x4 DUP3 ADD MSTORE PUSH1 0x24 ADD PUSH2 0x392 JUMP JUMPDEST PUSH1 0x1 PUSH1 0x1 PUSH1 0xA0 SHL SUB DUP1 DUP6 AND PUSH0 SWAP1 DUP2 MSTORE PUSH1 0x1 PUSH1 0x20 SWAP1 DUP2 MSTORE PUSH1 0x40 DUP1 DUP4 KECCAK256 SWAP4 DUP8 AND DUP4 MSTORE SWAP3 SWAP1 MSTORE KECCAK256 DUP3 SWAP1 SSTORE DUP1 ISZERO PUSH2 0x4A6 JUMPI DUP3 PUSH1 0x1 PUSH1 0x1 PUSH1 0xA0 SHL SUB AND DUP5 PUSH1 0x1 PUSH1 0x1 PUSH1 0xA0 SHL SUB AND PUSH32 0x8C5BE1E5EBEC7D5BD14F71427D1E84F3DD0314C0F7B2291E5B200AC8C7C3B925 DUP5 PUSH1 0x40 MLOAD PUSH2 0x6B3 SWAP2 DUP2 MSTORE PUSH1 0x20 ADD SWAP1 JUMP JUMPDEST PUSH1 0x40 MLOAD DUP1 SWAP2 SUB SWAP1 LOG3 POP POP POP POP JUMP JUMPDEST PUSH1 0x1 PUSH1 0x1 PUSH1 0xA0 SHL SUB DUP4 AND PUSH2 0x6EB JUMPI DUP1 PUSH1 0x2 PUSH0 DUP3 DUP3 SLOAD PUSH2 0x6E0 SWAP2 SWAP1 PUSH2 0x94F JUMP JUMPDEST SWAP1 SWAP2 SSTORE POP PUSH2 0x75B SWAP1 POP JUMP JUMPDEST PUSH1 0x1 PUSH1 0x1 PUSH1 0xA0 SHL SUB DUP4 AND PUSH0 SWAP1 DUP2 MSTORE PUSH1 0x20 DUP2 SWAP1 MSTORE PUSH1 0x40 SWAP1 KECCAK256 SLOAD DUP2 DUP2 LT ISZERO PUSH2 0x73D JUMPI PUSH1 0x40 MLOAD PUSH4 0x391434E3 PUSH1 0xE2 SHL DUP2 MSTORE PUSH1 0x1 PUSH1 0x1 PUSH1 0xA0 SHL SUB DUP6 AND PUSH1 0x4 DUP3 ADD MSTORE PUSH1 0x24 DUP2 ADD DUP3 SWAP1 MSTORE PUSH1 0x44 DUP2 ADD DUP4 SWAP1 MSTORE PUSH1 0x64 ADD PUSH2 0x392 JUMP JUMPDEST PUSH1 0x1 PUSH1 0x1 PUSH1 0xA0 SHL SUB DUP5 AND PUSH0 SWAP1 DUP2 MSTORE PUSH1 0x20 DUP2 SWAP1 MSTORE PUSH1 0x40 SWAP1 KECCAK256 SWAP1 DUP3 SWAP1 SUB SWAP1 SSTORE JUMPDEST PUSH1 0x1 PUSH1 0x1 PUSH1 0xA0 SHL SUB DUP3 AND PUSH2 0x777 JUMPI PUSH1 0x2 DUP1 SLOAD DUP3 SWAP1 SUB SWAP1 SSTORE PUSH2 0x795 JUMP JUMPDEST PUSH1 0x1 PUSH1 0x1 PUSH1 0xA0 SHL SUB DUP3 AND PUSH0 SWAP1 DUP2 MSTORE PUSH1 0x20 DUP2 SWAP1 MSTORE PUSH1 0x40 SWAP1 KECCAK256 DUP1 SLOAD DUP3 ADD SWAP1 SSTORE JUMPDEST DUP2 PUSH1 0x1 PUSH1 0x1 PUSH1 0xA0 SHL SUB AND DUP4 PUSH1 0x1 PUSH1 0x1 PUSH1 0xA0 SHL SUB AND PUSH32 0xDDF252AD1BE2C89B69C2B068FC378DAA952BA7F163C4A11628F55A4DF523B3EF DUP4 PUSH1 0x40 MLOAD PUSH2 0x7DA SWAP2 DUP2 MSTORE PUSH1 0x20 ADD SWAP1 JUMP JUMPDEST PUSH1 0x40 MLOAD DUP1 SWAP2 SUB SWAP1 LOG3 POP POP POP JUMP JUMPDEST PUSH0 PUSH1 0x20 DUP1 DUP4 MSTORE DUP4 MLOAD DUP1 PUSH1 0x20 DUP6 ADD MSTORE PUSH0 JUMPDEST DUP2 DUP2 LT ISZERO PUSH2 0x813 JUMPI DUP6 DUP2 ADD DUP4 ADD MLOAD DUP6 DUP3 ADD PUSH1 0x40 ADD MSTORE DUP3 ADD PUSH2 0x7F7 JUMP JUMPDEST POP PUSH0 PUSH1 0x40 DUP3 DUP7 ADD ADD MSTORE PUSH1 0x40 PUSH1 0x1F NOT PUSH1 0x1F DUP4 ADD AND DUP6 ADD ADD SWAP3 POP POP POP SWAP3 SWAP2 POP POP JUMP JUMPDEST DUP1 CALLDATALOAD PUSH1 0x1 PUSH1 0x1 PUSH1 0xA0 SHL SUB DUP2 AND DUP2 EQ PUSH2 0x849 JUMPI PUSH0 DUP1 REVERT JUMPDEST SWAP2 SWAP1 POP JUMP JUMPDEST PUSH0 DUP1 PUSH1 0x40 DUP4 DUP6 SUB SLT ISZERO PUSH2 0x85F JUMPI PUSH0 DUP1 REVERT JUMPDEST PUSH2 0x868 DUP4 PUSH2 0x833 JUMP JUMPDEST SWAP5 PUSH1 0x20 SWAP4 SWAP1 SWAP4 ADD CALLDATALOAD SWAP4 POP POP POP JUMP JUMPDEST PUSH0 DUP1 PUSH0 PUSH1 0x60 DUP5 DUP7 SUB SLT ISZERO PUSH2 0x888 JUMPI PUSH0 DUP1 REVERT JUMPDEST PUSH2 0x891 DUP5 PUSH2 0x833 JUMP JUMPDEST SWAP3 POP PUSH2 0x89F PUSH1 0x20 DUP6 ADD PUSH2 0x833 JUMP JUMPDEST SWAP2 POP PUSH1 0x40 DUP5 ADD CALLDATALOAD SWAP1 POP SWAP3 POP SWAP3 POP SWAP3 JUMP JUMPDEST PUSH0 PUSH1 0x20 DUP3 DUP5 SUB SLT ISZERO PUSH2 0x8BF JUMPI PUSH0 DUP1 REVERT JUMPDEST POP CALLDATALOAD SWAP2 SWAP1 POP JUMP JUMPDEST PUSH0 PUSH1 0x20 DUP3 DUP5 SUB SLT ISZERO PUSH2 0x8D6 JUMPI PUSH0 DUP1 REVERT JUMPDEST PUSH2 0x8DF DUP3 PUSH2 0x833 JUMP JUMPDEST SWAP4 SWAP3 POP POP POP JUMP JUMPDEST PUSH0 DUP1 PUSH1 0x40 DUP4 DUP6 SUB SLT ISZERO PUSH2 0x8F7 JUMPI PUSH0 DUP1 REVERT JUMPDEST PUSH2 0x900 DUP4 PUSH2 0x833 JUMP JUMPDEST SWAP2 POP PUSH2 0x90E PUSH1 0x20 DUP5 ADD PUSH2 0x833 JUMP JUMPDEST SWAP1 POP SWAP3 POP SWAP3 SWAP1 POP JUMP JUMPDEST PUSH1 0x1 DUP2 DUP2 SHR SWAP1 DUP3 AND DUP1 PUSH2 0x92B JUMPI PUSH1 0x7F DUP3 AND SWAP2 POP JUMPDEST PUSH1 0x20 DUP3 LT DUP2 SUB PUSH2 0x949 JUMPI PUSH4 0x4E487B71 PUSH1 0xE0 SHL PUSH0 MSTORE PUSH1 0x22 PUSH1 0x4 MSTORE PUSH1 0x24 PUSH0 REVERT JUMPDEST POP SWAP2 SWAP1 POP JUMP JUMPDEST DUP1 DUP3 ADD DUP1 DUP3 GT ISZERO PUSH2 0x2F7 JUMPI PUSH4 0x4E487B71 PUSH1 0xE0 SHL PUSH0 MSTORE PUSH1 0x11 PUSH1 0x4 MSTORE PUSH1 0x24 PUSH0 REVERT INVALID LOG2 PUSH5 0x6970667358 0x22 SLT KECCAK256 PUSH27 0x54B8EE5A6447DBB1C75D9F4A39D1FDEBD7C9C961EB3D885F5CE6FF GT 0xBF MULMOD MULMOD PUSH5 0x736F6C6343 STOP ADDMOD XOR STOP CALLER "
				},
				"gasEstimates": {
					"creation": {
						"codeDepositCost": "493600",
						"executionCost": "infinite",
						"totalCost": "infinite"
					},
					"external": {
						"MAX_SUPPLY()": "261",
						"allowance(address,address)": "infinite",
						"approve(address,uint256)": "24758",
						"balanceOf(address)": "2582",
						"burn(uint256)": "50939",
						"decimals()": "221",
						"mint(address,uint256)": "infinite",
						"name()": "infinite",
						"owner()": "2389",
						"renounceOwnership()": "infinite",
						"symbol()": "infinite",
						"totalSupply()": "2348",
						"transfer(address,uint256)": "51260",
						"transferFrom(address,address,uint256)": "infinite",
						"transferOwnership(address)": "28421"
					}
				},
				"methodIdentifiers": {
					"MAX_SUPPLY()": "32cb6b0c",
					"allowance(address,address)": "dd62ed3e",
					"approve(address,uint256)": "095ea7b3",
					"balanceOf(address)": "70a08231",
					"burn(uint256)": "42966c68",
					"decimals()": "313ce567",
					"mint(address,uint256)": "40c10f19",
					"name()": "06fdde03",
					"owner()": "8da5cb5b",
					"renounceOwnership()": "715018a6",
					"symbol()": "95d89b41",
					"totalSupply()": "18160ddd",
					"transfer(address,uint256)": "a9059cbb",
					"transferFrom(address,address,uint256)": "23b872dd",
					"transferOwnership(address)": "f2fde38b"
				}
			},
			"storageLayout": {
				"storage": [
					{
						"astId": 279,
						"contract": "Purgatory_flattened.sol:Purgatory",
						"label": "_balances",
						"offset": 0,
						"slot": "0",
						"type": "t_mapping(t_address,t_uint256)"
					},
					{
						"astId": 285,
						"contract": "Purgatory_flattened.sol:Purgatory",
						"label": "_allowances",
						"offset": 0,
						"slot": "1",
						"type": "t_mapping(t_address,t_mapping(t_address,t_uint256))"
					},
					{
						"astId": 287,
						"contract": "Purgatory_flattened.sol:Purgatory",
						"label": "_totalSupply",
						"offset": 0,
						"slot": "2",
						"type": "t_uint256"
					},
					{
						"astId": 289,
						"contract": "Purgatory_flattened.sol:Purgatory",
						"label": "_name",
						"offset": 0,
						"slot": "3",
						"type": "t_string_storage"
					},
					{
						"astId": 291,
						"contract": "Purgatory_flattened.sol:Purgatory",
						"label": "_symbol",
						"offset": 0,
						"slot": "4",
						"type": "t_string_storage"
					},
					{
						"astId": 777,
						"contract": "Purgatory_flattened.sol:Purgatory",
						"label": "_owner",
						"offset": 0,
						"slot": "5",
						"type": "t_address"
					}
				],
				"types": {
					"t_address": {
						"encoding": "inplace",
						"label": "address",
						"numberOfBytes": "20"
					},
					"t_mapping(t_address,t_mapping(t_address,t_uint256))": {
						"encoding": "mapping",
						"key": "t_address",
						"label": "mapping(address => mapping(address => uint256))",
						"numberOfBytes": "32",
						"value": "t_mapping(t_address,t_uint256)"
					},
					"t_mapping(t_address,t_uint256)": {
						"encoding": "mapping",
						"key": "t_address",
						"label": "mapping(address => uint256)",
						"numberOfBytes": "32",
						"value": "t_uint256"
					},
					"t_string_storage": {
						"encoding": "bytes",
						"label": "string",
						"numberOfBytes": "32"
					},
					"t_uint256": {
						"encoding": "inplace",
						"label": "uint256",
						"numberOfBytes": "32"
					}
				}
			},
			"userdoc": {
				"kind": "user",
				"methods": {
					"burn(uint256)": {
						"notice": "Herkes kendi tokenini yakabilir"
					},
					"mint(address,uint256)": {
						"notice": "Sadece sahibi yeni token basabilir, toplam arzı aşamaz"
					}
				},
				"notice": "Güvenli, CMC uyumlu, mint limiti ile topluluk dostu",
				"version": 1
			}
		}
	}
}